:020000040800F2
:10000000000002204D260008650D0008670D00085D
:10001000690D00086B0D00086D0D00080000000060
:100020000000000000000000000000006F0D00084C
:10003000710D000800000000730D0008750D000828
:100040009D2600089D2600089D2600089D26000884
:100050009D2600089D260008490600089D260008E8
:100060009D2600089D2600089D2600089D26000864
:100070009D2600089D2600089D2600089D26000854
:100080007D0D00089D2600089D2600089D2600087D
:100090009D2600089D2600089D2600089D26000834
:1000A0009D2600089D2600089D2600089D26000824
:1000B0009D2600089D2600089D2600089D26000814
:1000C0009D2600089D2600089D2600089D26000804
:1000D0009D2600089D2600089D2600089D260008F4
:1000E0009D2600089D2600089D2600089D260008E4
:1000F0009D2600089D2600089D2600089D260008D4
:100100009D2600089D2600089D2600089D260008C3
:100110009D2600089D2600089D2600089D260008B3
:100120009D2600089D2600089D2600089D260008A3
:100130009D26000800000000000000009D26000829
:100140009D2600089D2600089D2600089D26000883
:100150009D2600089D2600089D2600089D26000873
:100160009D2600089D2600089D2600089D26000863
:100170009D2600089D2600089D260008000000001E
:10018000000000009D2600080000000000000000A4
:100190009D26000800000000000000009D260008C9
:1001A0000000000000000000000000009D26000884
:1001B0009D2600089D2600089D2600089D26000813
:0401C0009D26000870
:1001C40010B5054C237833B9044B13B10448AFF38D
:1001D40000800123237010BDD05D002000000000CA
:1001E400F826000808B5034B1BB103490348AFF3D5
:1001F400008008BD00000000D45D0020F82600083F
:1002040053B94AB9002908BF00281CBF4FF0FF3179
:100214004FF0FF3000F088B9ADF1080C6DE904CE61
:1002240000F006F8DDF804E0DDE9022304B07047CD
:100234002DE9F047089D8E4604468846002B4AD196
:100244008A42174662D9B2FA82F64EB1C6F1200349
:1002540001FA06F820FA03F3B74043EA0808B44069
:100264004FEA174E1FFA87FCB8FBFEF1230C0EFB76
:10027400118843EA084301FB0CF29A4209D9FB189E
:1002840001F1FF3080F0EA809A4240F2E7800239BF
:100294003B449A1AA3B2B2FBFEF00EFB102243EACF
:1002A400024300FB0CFC9C4509D9FB1800F1FF320A
:1002B40080F0D6809C4540F2D3803B44023840EA2B
:1002C4000140A3EB0C0300211DB1F3400022C5E95A
:1002D4000032BDE8F0878B4205D90DB1C5E90001B4
:1002E40000210846F5E7B3FA83F1002946D17345A6
:1002F40002D3824200F20581841A6EEB03020120CC
:100304009046002DE5D0C5E90048E2E7002A00F058
:100314009080B2FA82F6002E40F0A4808A1A030C70
:100324004FEA174E80B2BCB20121B2FBFEFC0EFBB9
:100334001C2243EA024304FB0CF29A4207D9FB183D
:100344000CF1FF3802D29A4200F2E080C4469B1AB4
:10035400B3FBFEF20EFB123340EA034302FB04F448
:100364009C4207D9FB1802F1FF3002D29C4200F2F2
:10037400CA8002461B1B42EA0C40A5E7C1F12006D5
:100384008B4022FA06F71F430EFA01F420FA06F313
:100394002EFA06FE4FEA1749234300FA01F81FFA22
:1003A40087FCBEFBF9F01C0C09FB10EE44EA0E447A
:1003B40000FB0CFEA64502FA01F209D93C1900F132
:1003C400FF3A80F09C80A64540F2998002383C4474
:1003D400A4EB0E041FFA83FEB4FBF9F309FB1344E8
:1003E4004EEA044403FB0CFCA44508D93C1903F170
:1003F400FF3E80F08280A4457FD9023B3C4443EA1F
:100404000040A4EB0C04A0FB02EC64457346E146F7
:1004140062D35FD05DB1B8EB030264EB090404FA64
:1004240006F622FA01F31E43CC40C5E9006400211C
:100434004FE7B1FBF2FC010C41EA0E4180B240EA05
:1004440001423B4638463C46B846BE462026B1FBF0
:10045400F7F1A2EB080241EA0C4166E7014618E70E
:1004640010462CE7C6F120022EFA02F3B740B14041
:1004740020FA02F24FEA174E0A43B3FBFEF8BCB26D
:100484000EFB1833110C41EA034108FB04F9B04098
:1004940089454FEA104380B23ED9791808F1FF3CF0
:1004A40001D289451FD8A1EB0901B1FBFEF909FB73
:1004B40004F80EFB191192B242EA0142424529D2D4
:1004C400BA1809F1FF31C4D24245C2D2A9F10201DE
:1004D4003A44BEE7F0459DD2BEEB02036CEB070C39
:1004E4000138E14696E7A7EB09094944A8F1020C53
:1004F400B1FBFEF909FB04F8DBE773467FE75046DE
:1005040066E70846FDE63B44023A33E7ACF1020CE9
:100514003B441CE749469CE7A1EB0901C446B1FBF7
:10052400FEF909FB04F8C4E7704700BF2DE9F04F5A
:1005340089B00024039404940594069407940094C9
:100544002F4B1A6B42F080021A631A6B02F080027E
:100554000092009A01941A6B42F001021A631A6B1A
:1005640002F001020192019A02941A6B42F0020213
:100574001A631B6B03F002030293029B4FF4404B7C
:10058400CDF80CB001260496DFF87CA003A95046F0
:1005940001F064FC4FF44079CDF80C90DFF86C80E6
:1005A40003A9404601F05AFC4FF410470397154D38
:1005B40003A9284601F052FC22465946504601F050
:1005C4003DFD22464946404601F038FD2246394663
:1005D400284601F033FD03964FF4881304930596DF
:1005E40003A9284601F03AFC22460221062001F024
:1005F400A7FF062001F0B4FF09B0BDE8F08F00BFEB
:10060400003802400000024000080240000402409A
:1006140000B583B000210191094B1A6B42F400121A
:100624001A631B6B03F400130193019B0A46102009
:1006340001F086FF102001F093FF03B05DF804FB86
:100644000038024008B5012001F000FD01F0ECFF84
:10065400464B1B68C31A092B00D808BD434B1860CE
:10066400434B1A68D36823F40073D360414801F004
:1006740012FE41490A780132404B83FB020303EB2B
:100684004303A2EB4303DBB20B700B78DBB2052B05
:100694005ED8DFE803F003172533414F012000F053
:1006A4009FFA374800F090FA4FF47A73354A364986
:1006B400304801F0BBFD2E4B1A68D36843F4007335
:1006C400D360CAE7012000F08BFA304800F07CFACE
:1006D4004FF47A732B4A2E49264801F0A7FDEAE726
:1006E400012000F07DFA2B4800F06EFA4FF47A7383
:1006F400244A29491F4801F099FDDCE7012000F054
:100704006FFA264800F060FA4FF480631D4A2449CA
:10071400184801F08BFDCEE7012000F061FA214872
:1007240000F052FA4FF48063164A1F49114801F051
:100734007DFDC0E7012000F053FA1C4800F044FAA4
:100744004FF480630F4A1A490A4801F06FFDB2E77B
:10075400012000F045FA0A4800F036FA4FF48063AD
:10076400084A0949034801F061FDA4E7E05E00205E
:10077400985E0020F05D0020EC5D0020ABAAAA2A60
:10078400102700083C040040244E00201C270008C9
:10079400843E00202C270008E42E00203C2700087B
:1007A400441F0020482700080400002054270008A4
:1007B400A40F002072B6FEE700B58FB000230A93A1
:1007C4000B930C930D930893099301930293039352
:1007D400049305930693079336484FF080420260D2
:1007E40043608360344A1268013AC26003618361E2
:1007F40000F090FC002850D14FF480530A930AA9CA
:100804002C4800F0EDFD002849D12A4800F0AEFC48
:10081400002846D100230893099308A9254800F02D
:1008240071FF00283FD100220192029203920592A7
:1008340001A9204800F02AFD002836D100230093A6
:100844001E4A116B41F400111163126B02F4001281
:100854000092009A1A481B4A02604FF0C06242603C
:1008640040228260C3604FF4806202614FF4805280
:1008740042614FF4804282614FF48072C2614FF44E
:1008840000320262436201F06BFC80B9094A0C4BEE
:1008940053629A630FB05DF804FBFFF78BFFFFF719
:1008A40089FFFFF787FFFFF785FFFFF783FFFFF758
:1008B40081FF00BF985E0020000000200038024045
:1008C400F05D00208860024000B58FB000230A93D9
:1008D4000B930C930D930893099301930293039341
:1008E40004930593069307931E481F4A02604360CE
:1008F400836040F6FF72C2600361836100F00AFC0A
:1009040028BB4FF480530A930AA9164800F068FDE7
:10091400F8B9144800F056FCE8B900230893099389
:1009240008A9104800F0EEFEB8B960230193002333
:10093400029303930593082201A90A4800F0D5FC09
:1009440068B9084800F088FA0FB05DF804FBFFF7B7
:1009540031FFFFF72FFFFFF72DFFFFF72BFFFFF707
:1009640029FF00BF505E00200004004000B595B090
:100974003422002107A801F090FE00230293039380
:100984000493059306930093194A116C41F0805126
:100994001164126C02F080520092009A019315497E
:1009A4000A6822F4404242F480420A600A6802F46F
:1009B40040420192019A0222079201220A921022D5
:1009C4000B920D9307A801F027F868B90F2302933F
:1009D4000021039104910591069102A800F0D8FE2C
:1009E40020B915B05DF804FBFFF7E4FEFFF7E2FE63
:1009F400003802400070004008B501F0EFFDFFF739
:100A0400B5FFFFF793FDFFF703FEFFF7D5FEFFF7F2
:100A14005BFF08210F4800F0F3FD08B1FFF7CAFEA1
:100A240000210D4800F06AFD08B1FFF7C3FE4FF442
:100A34007A730A4A0A490B4801F0F8FB00F058F9A6
:100A4400094800F0C1F8044B1A68D36843F40073F2
:100A5400D360FEE7505E0020985E00203C04004016
:100A6400244E0020F05D00201027000882B000EB27
:100A740040000023019304E000BF00BF019B013349
:100A84000193019B8342F7D302B0704710B5142041
:100A9400FFF7ECFF094CA36943F40043A36114205E
:100AA400FFF7E4FFA36943F00043A3611420FFF7B9
:100AB400DDFFA36943F40043A36110BD00080240B5
:100AC40010B504463D4A936943F48043936110F0A2
:100AD400800F41D13A4A936943F00043936114F083
:100AE400400F40D0364A936943F48053936114F025
:100AF400200F3ED0334A936943F40073936114F09A
:100B0400100F3CD02F4A936943F480739361FFF72D
:100B1400BDFF14F0080F38D0294A936943F4004309
:100B2400936114F0040F36D0254A936943F480533B
:100B3400936114F0020F34D0224A936943F4007392
:100B4400936114F0010F32D01E4A936943F4807309
:100B54009361FFF79BFF10BDA2F50062936943F414
:100B640000439361BBE7164A936943F08053936152
:100B7400BDE7144A936943F000739361BFE7114AD8
:100B8400936943F080739361C1E70D4A936943F01D
:100B940000439361C5E70A4A936943F08053936124
:100BA400C7E7084A936943F000739361C9E7054AAC
:100BB400936943F080739361CBE700BF0008024060
:100BC400000002400004024038B50546002403E05A
:100BD400FFF776FF0134E4B2285D0028F8D138BD70
:100BE40010B504463F4A936943F08043936110F083
:100BF400800F45D13C4A936943F00043936114F05C
:100C0400400F44D0384A936943F48053936114F0FD
:100C1400200F42D0354A936943F40073936114F072
:100C2400100F40D0314A936943F480739361FFF706
:100C34002DFF14F0080F3CD02B4A936943F4004372
:100C4400936114F0040F3AD0274A936943F4805314
:100C5400936114F0020F38D0244A936943F400736B
:100C6400936114F0010F36D0204A936943F48073E2
:100C74009361FFF70BFF40F6B830FFF7F7FE10BDA6
:100C8400A2F50062936943F400439361B7E7164AFF
:100C9400936943F080539361B9E7144A936943F02D
:100CA40000739361BBE7114A936943F080739361C6
:100CB400BDE70D4A936943F000439361C1E70A4AD3
:100CC400936943F080539361C3E7084A936943F0FF
:100CD40000739361C5E7054A936943F08073936198
:100CE400C7E700BF000802400000024000040240C1
:100CF40008B5194B1A6B42F001021A631A6B42F0E1
:100D040002021A631A6B42F004021A63134A13684C
:100D140043F08243136002F58062136843F4A02316
:100D2400136002F58062136843F0A043136047F236
:100D34003050FFF79BFE3320FFF752FF3220FFF7BE
:100D44004FFF0C20FFF74CFF2820FFF749FF01203D
:100D5400FFF746FF08BD00BF003802400000024014
:100D6400FEE7FEE7FEE7FEE7FEE7704770477047E1
:100D740008B501F04DFC08BD08B5024801F09EFA23
:100D840008BD00BFF05D002082B0002100910B4B34
:100D94005A6C42F480425A645A6C02F480420092C3
:100DA400009A01911A6C42F080521A641B6C03F091
:100DB40080530193019B02B0704700BF003802408A
:100DC40010B582B00368B3F1804F04D01E4A934239
:100DD4002CD002B010BD0446002300931B4A116CB2
:100DE40041F001011164126C02F001020092009AB8
:100DF4001748184A02604FF0C06242608360C360C3
:100E04004FF4806202614FF4805242614FF4804299
:100E14008261C3610362436201F0A2F918B90C4B09
:100E240063629C63D5E7FFF7C5FCF8E700230193F1
:100E3400064B1A6C42F002021A641B6C03F00203A4
:100E44000193019BC5E700BF000400400038024045
:100E5400F05D00208860024000B587B00023019354
:100E6400029303930493059302680E4B9A4202D0B3
:100E740007B05DF804FB002300930B4B1A6B42F0A0
:100E840002021A631B6B03F002030093009B01230D
:100E9400019302230293059301A9044800F0DEFFA5
:100EA400E6E700BF000400400038024000040240AE
:100EB40030B4036A026A22F0010202624268846961
:100EC40024F0730C0C6844EA0C0423F0020C8B68C5
:100ED40043EA0C03114DA84203D005F58065A842EE
:100EE40005D123F00803CD682B4323F004030B4DF5
:100EF400A84203D005F58065A84207D122F44072C8
:100F04004D6945EA020C8A6942EA0C024260846136
:100F14004A684263036230BC704700BF000001406E
:100F240030B4036A026A22F4807202624268C469BD
:100F340024F0730C0C6844EA0C0523F400738C68E9
:100F440043EA0423114CA04203D004F58064A04278
:100F540006D123F40063CC6843EA042323F48063BA
:100F64000A4CA04203D004F58064A04207D122F4C5
:100F740040524C6942EA04128C6942EA041242600B
:100F8400C5614A68C263036230BC70470000014017
:100F940030B4036A026A22F4805202624468C2696D
:100FA40022F4E6420D6842EA052223F400538D68D8
:100FB40043EA0533094DA84203D005F58065A842EC
:100FC40004D124F480444D6944EA85144460C26128
:100FD4004A680264036230BC704700BF00000140ED
:100FE40010B4036A046A24F001040462846924F0DE
:100FF400F00C4CEA021223F00A030B4382610362F1
:101004005DF8044B704710B4036A046A24F01004BA
:101014000462846924F4704C4CEA023223F0A00385
:1010240043EA0113826103625DF8044B70478368ED
:1010340023F070030B4343F007038360704770474A
:10104400704700000368324A904212D0B0F1804FDA
:101054000FD0A2F57C4290420BD002F58062904200
:1010640007D002F58062904203D002F578429042A4
:1010740003D123F070034A681343254A90422AD0CF
:10108400B0F1804F27D0A2F57C42904223D002F5E4
:10109400806290421FD002F5806290421BD002F51C
:1010A4007842904217D002F57052904213D002F564
:1010B400806290420FD002F5806290420BD0A2F57C
:1010C4009832904207D002F58062904203D002F534
:1010D4008062904203D123F44073CA68134323F01F
:1010E40080034A6913438A68C2620A688262084AB2
:1010F400904203D002F58062904201D10A690263F2
:10110400026842F0040202600122426103607047F7
:101114000000014040B310B5044690F83D30F3B1EF
:10112400022384F83D30214651F8040BFFF78AFF6F
:10113400012384F8463084F83E3084F83F3084F844
:10114400403084F8413084F8423084F8433084F8E5
:10115400443084F8453084F83D30002010BD80F8D8
:101164003C30FFF72DFEDBE70120704740B310B59C
:10117400044690F83D30F3B1022384F83D30214613
:1011840051F8040BFFF75EFF012384F8463084F81E
:101194003E3084F83F3084F8403084F8413084F89D
:1011A400423084F8433084F8443084F8453084F87D
:1011B4003D30002010BD80F83C30FFF740FFDBE7F6
:1011C4000120704740B310B5044690F83D30F3B1A8
:1011D400022384F83D30214651F8040BFFF732FF17
:1011E400012384F8463084F83E3084F83F3084F894
:1011F400403084F8413084F8423084F8433084F835
:10120400443084F8453084F83D30002010BD80F827
:101214003C30FFF715FFDBE70120704730B4036A69
:10122400026A22F0100202624468826922F4E642F1
:101234000D6842EA052223F020038D6843EA051372
:10124400114DA84203D005F58065A84206D123F0CC
:101254008003CD6843EA051323F040030A4DA842F6
:1012640003D005F58065A84207D124F440644D6994
:1012740044EA85048D6944EA8504446082614A68CD
:101284008263036230BC70470000014090F83C3038
:10129400012B28D010B50446012380F83C300C2AD9
:1012A4001CD8DFE802F0071B1B1B0C1B1B1B111BAC
:1012B4001B1B16000068FFF7FBFD00200FE0006811
:1012C400FFF7ACFF00200AE00068FFF729FE0020CA
:1012D40005E00068FFF75CFE002000E00120002329
:1012E40084F83C3010BD0220704738B590F83C308B
:1012F400012B66D004460D46012380F83C300C2AAD
:101304005AD8DFE802F0075959591B59595930592D
:10131400595944000068FFF7CBFD2268936943F0F4
:10132400080393612268936923F00403936122689C
:10133400936929690B43936100203EE00068FFF73D
:101344006DFF2268936943F4006393612268936993
:1013540023F48063936122689369296943EA012332
:101364009361002029E00068FFF7DAFD2268D36961
:1013740043F00803D3612268D36923F00403D361E3
:101384002268D36929690B43D361002015E0006802
:10139400FFF7FEFD2268D36943F40063D36122683A
:1013A400D36923F48063D3612268D369296943EA4A
:1013B4000123D361002000E00120002384F83C30A5
:1013C40038BD0220FCE710B4846824F47F4C42EA60
:1013D40003220A4342EA0C0282605DF8044B704720
:1013E40090F83C30012B78D010B50446012380F8E6
:1013F4003C30022380F83D300268936823F47F4335
:1014040023F0770393600B68602B4CD023D8402BD8
:1014140054D011D8202B03D00AD80BB1102B05D1EE
:1014240019462068FFF703FE002028E0012026E08B
:10143400302BF5D0012022E0502B0AD1CA6849682C
:101444000068FFF7CDFD50212068FFF7F0FD002074
:1014540015E0012013E0B3F5805F3AD0B3F5005FE7
:1014640014D0702B37D1CB684A6889680068FFF7BD
:10147400AAFF2268936843F0770393600020012356
:1014840084F83D30002384F83C3010BDCB684A68B2
:1014940089680068FFF797FF2268936843F48043E4
:1014A40093600020EBE7CA6849680068FFF7ABFD6A
:1014B40060212068FFF7BBFD0020E0E7CA684968A7
:1014C4000068FFF78DFD40212068FFF7B0FD002084
:1014D400D5E70020D3E70120D1E70220704701F0CF
:1014E4001F014FF0010C0CFA01FC036A23EA0C0300
:1014F4000362036A8A4013430362704710B50446CB
:101504000846002942D194F83E30DBB2013B18BFB3
:101514000123002B6ED1002851D1022384F83E30E0
:10152400012201462068FFF7DAFF2368334A934219
:1015340003D002F58062934203D15A6C42F4004214
:101544005A6423682D4A934249D0B3F1804F46D060
:10155400A2F57C42934242D002F5806293423ED08F
:1015640002F5806293423AD002F57842934236D033
:1015740002F57052934232D0A2F5943293422ED0A7
:101584001A6842F001021A60002032E0042908D0EF
:1015940008290DD094F84130DBB2013B18BF012378
:1015A400B7E794F83F30DBB2013B18BF0123B0E743
:1015B40094F84030DBB2013B18BF0123A9E70428AB
:1015C40005D0082807D0022384F84130A8E7022375
:1015D40084F83F30A4E7022384F84030A0E79A68F7
:1015E40002F00702062A07D01A6842F001021A60C4
:1015F400002010BD0120FCE70020FAE700000140B4
:1016040010B504460846002942D194F83E30DBB2B6
:10161400013B18BF0123002B6ED1002851D10223B6
:1016240084F83E30012201462068FFF758FF236802
:10163400334A934203D002F58062934203D15A6C39
:1016440042F400425A6423682D4A934249D0B3F1CC
:10165400804F46D0A2F57C42934242D002F580628C
:1016640093423ED002F5806293423AD002F578422A
:10167400934236D002F57052934232D0A2F594329E
:1016840093422ED01A6842F001021A60002032E020
:10169400042908D008290DD094F84130DBB2013B6D
:1016A40018BF0123B7E794F83F30DBB2013B18BF02
:1016B4000123B0E794F84030DBB2013B18BF0123AB
:1016C400A9E7042805D0082807D0022384F841306C
:1016D400A8E7022384F83F30A4E7022384F84030CB
:1016E400A0E79A6802F00702062A07D01A6842F0B7
:1016F40001021A60002010BD0120FCE70020FAE777
:101704000000014090F83C20012A3DD010B403466B
:10171400012280F83C20022280F83D2002685068B3
:10172400946820F0700C086840EA0C0050601A6855
:10173400164882421AD0B2F1804F17D0A0F57C40EF
:10174400824213D000F5806082420FD000F58060A1
:1017540082420BD000F57840824207D000F57050E9
:10176400824203D0A0F59430824204D124F0800454
:10177400496821439160012283F83D20002083F8C9
:101784003C005DF8044B70470220704700000140A4
:10179400002800F09B8070B50D4604464F4B1B6833
:1017A40003F00F038B4208D2CBB24C4A1370136878
:1017B40003F00F038B4240F08B80236813F0020F79
:1017C40017D013F0040F04D0454A936843F4E05350
:1017D4009360236813F0080F04D0414A936843F4DC
:1017E400604393603E4A936823F0F003A1680B437F
:1017F4009360236813F0010F32D06368012B21D06A
:101804009A1E012A25D9364A126812F0020F61D0B5
:1018140033498A6822F0030213438B6000F004FF0B
:1018240006462F4B9B6803F00C036268B3EB820FF0
:1018340016D000F0F9FE801B41F288339842F0D9AB
:10184400032042E0264A126812F4003FE0D101204E
:101854003BE0234A126812F0007FD9D1012034E022
:101864001E4B1B6803F00F03AB4207D9EAB21B4BB4
:101874001A701B6803F00F03AB422DD1236813F0D9
:10188400040F06D0164A936823F4E053E1680B432F
:101894009360236813F0080F07D0114A936823F468
:1018A4006043216943EAC103936000F021F80C4BC3
:1018B4009B68C3F303130B4AD35CD8400A4B1860EC
:1018C4000A4B186800F064FE002070BD01207047C8
:1018D4000120FAE70120F8E70120F6E7003C024086
:1018E4000038024068270008CC5D0020C85D002055
:1018F40008B5464B9B6803F00C03082B05D00C2B52
:1019040043D0042B7FD1424819E0404B5A6802F07F
:101914003F025B6813F4800F12D03C4B5968C1F34B
:1019240088113B480023A1FB0001FEF769FC374BFB
:101934005B68C3F3014301335B00B0FBF3F008BD04
:10194400324B5868C0F388104FEA401CBCEB000CC3
:101954006EEB0E0E4FEA8E1343EA9C634FEA8C1132
:10196400B1EB0C0163EB0E03DB0043EA5173C900D6
:1019740011EB000C43F10003990200234FEA8C2081
:1019840041EA9C51FEF73CFCD1E7204B5A6802F037
:101994003F025B6813F4800F10D01C4B5968C1F3ED
:1019A40088111B480023A1FB0001FEF729FC174BFB
:1019B4005B68C3F30273B0FBF3F0C0E7134B5868E2
:1019C400C0F388104FEA401CBCEB000C6EEB0E0E0B
:1019D4004FEA8E1343EA9C634FEA8C11B1EB0C017E
:1019E40063EB0E03DB0043EA5173C90011EB000CF7
:1019F40043F10003990200234FEA8C2041EA9C51F1
:101A0400FEF7FEFBD3E7034899E700BF0038024026
:101A140040787D010024F400002800F0018270B5B4
:101A240082B00446036813F0010F41D0994B9B68C0
:101A340003F00C03042B32D0964B9B6803F00C0389
:101A4400082B27D0934B9B6803F00C030C2B59D025
:101A54006368B3F5803F5BD0B3F5A02F5ED08D4BA8
:101A64001A6822F480321A601A6822F480221A60FA
:101A74006368002B5CD000F0D7FD0546854B1B68DE
:101A840013F4003F14D100F0CFFD401B6428F5D9B6
:101A94000320CCE17F4B5B6813F4800FD2D07D4BE5
:101AA4001B6813F4003F03D06368002B00F0BA8175
:101AB400236813F0020F60D0764B9B6813F00C0F71
:101AC4004AD0744B9B6803F00C03082B3FD0714B36
:101AD4009B6803F00C030C2B69D0E368002B75D0D2
:101AE4006D4B01221A6000F09FFD0546694B1B688F
:101AF40013F0020F61D100F097FD401B0228F5D9C5
:101B0400032094E1634B5B6813F4800FA0D0C6E715
:101B1400604A136843F480331360A9E75D4B1A6885
:101B240042F480221A601A6842F480321A609FE7F5
:101B340000F07AFD0546574B1B6813F4003FB7D0FD
:101B440000F072FD401B6428F5D903206FE1514B6E
:101B54005B6813F4800FBAD14E4B1B6813F0020F6D
:101B640003D0E368012B40F05F814A4A136823F0F5
:101B7400F803216943EAC1031360236813F0080FD3
:101B840049D06369002B33D0434B0122C3F8802E24
:101B940000F04AFD05463F4B5B6F13F0020F3AD14C
:101BA40000F042FD401B0228F5D903203FE1394BE8
:101BB4005B6813F4800F90D1CEE7364A136823F0A4
:101BC400F803216943EAC1031360D6E7324B0022CC
:101BD4001A6000F029FD05462E4B1B6813F0020F16
:101BE400CBD000F021FD401B0228F5D903201EE1D3
:101BF400294B0022C3F8802E00F016FD0546254B24
:101C04005B6F13F0020F06D000F00EFD401B02289C
:101C1400F5D903200BE1236813F0040F76D01D4B94
:101C24001B6C13F0805F33D100230193194B1A6CA2
:101C340042F080521A641B6C03F080530193019BA1
:101C44000125164B1B6813F4807F29D0A368012B50
:101C54003AD0052B3ED00F4B1A6F22F001021A67BF
:101C64001A6F22F004021A67A368002B3CD000F01C
:101C7400DBFC0646074B1B6F13F0020F45D100F047
:101C8400D3FC801B41F288339842F3D90320CEE081
:101C94000025D6E7003802400000474200700040AB
:101CA4006B4A136843F48073136000F0BDFC06466E
:101CB400674B1B6813F4807FC8D100F0B5FC801B10
:101CC4000228F5D90320B2E0624A136F43F00103FE
:101CD4001367C9E75F4B1A6F42F004021A671A6F61
:101CE40042F001021A67BFE700F09EFC0646594B1A
:101CF4001B6F13F0020F08D000F096FC801B41F21A
:101D040088339842F3D9032091E0EDB9A369002BFD
:101D140000F08C804F4A926802F00C02082A54D0DA
:101D2400022B17D04C4B00221A6600F07DFC0446AF
:101D3400484B1B6813F0007F45D000F075FC001B76
:101D44000228F5D9032072E0424A136C23F0805331
:101D54001364DBE7404B00221A6600F065FC05467D
:101D64003C4B1B6813F0007F06D000F05DFC401B69
:101D74000228F5D903205AE0E369226A1343626A10
:101D840043EA8213A26A5208013A43EA0243E26A2E
:101D940043EA0263226B43EA02732E4A53602E4BDA
:101DA40001221A6600F040FC04462A4B1B6813F01B
:101DB400007F06D100F038FC001B0228F5D903206F
:101DC40035E0002033E0002031E0012B31D0214BFD
:101DD4005B6803F48001E26991422CD103F03F0275
:101DE400216A8A4229D1616A47F6C0721A40B2EB6D
:101DF400811F24D103F44031A26A5208013AB1EBA5
:101E0400024F1ED103F07062E16AB2EB016F1AD186
:101E140003F0E043226BB3EB027F16D1002006E00F
:101E240001207047012002E0012000E0002002B000
:101E340070BD0120FBE70120F9E70120F7E701204D
:101E4400F5E70120F3E70120F1E70120EFE700BF08
:101E540000700040003802400000474200230F2B6E
:101E640000F2E38070B582B065E085684FEA430E06
:101E7400032404FA0EF425EA0405CC6804FA0EF4EB
:101E84002C438460446824EA02044A68C2F30012C2
:101E94009A40224342605CE0DC08083450F8242075
:101EA40003F00705AD004FF00F0E0EFA05FE22EA0F
:101EB4000E0E0A69AA4042EA0E0240F824205CE0B1
:101EC400062200E0002202FA0EF22A430234574DA1
:101ED40045F82420564A94686FEA0C0224EA0C055B
:101EE4004E6816F4801F01D04CEA0405504CA560DE
:101EF400E46802EA04054E6816F4001F01D04CEAB7
:101F040004054B4CE560646802EA04054E6816F467
:101F1400003F01D04CEA0405454C6560246822402A
:101F24004D6815F4803F01D04CEA0402404C226015
:101F340001330F2B77D801229A400C6804EA020C73
:101F440032EA0404F4D14C6804F00304013C012C8B
:101F54008BD94A6802F00302032A09D0C4685D00E1
:101F64000322AA4024EA02048A68AA402243C260E7
:101F74004A6802F00302022A8ED004684FEA430E34
:101F8400032202FA0EF224EA02044A6802F003026F
:101F940002FA0EF2224302604A6812F4403FC7D0AC
:101FA40000220192234A546C44F480445464526CD9
:101FB40002F480420192019A9C08A51C1B4A52F823
:101FC400255003F0030E4FEA8E0E0F2202FA0EF292
:101FD40025EA0205184A90423FF474AF02F5806284
:101FE400904216D002F58062904214D002F58062CD
:101FF400904212D002F58062904210D002F58062C5
:1020040090420ED002F5806290423FF459AF07220D
:1020140059E7012257E7022255E7032253E7042236
:1020240051E705224FE702B070BD70470038014008
:10203400003C014000380240000002400AB18161C6
:1020440070470904816170477047000008B5054B6B
:102054005B69034200D108BD024B5861FFF7F4FFEE
:10206400F9E700BF003C014030B405682C6824F453
:1020740080242C60046863608368402B05D0036867
:1020840099600368DA6030BC704703689A6003683B
:10209400D960F8E710B40368D9B210390A4AA2FB30
:1020A40001421209094CA25CC2655F2907D96FF38A
:1020B400090304338365806D5DF8044B70476FF347
:1020C40009038365F7E700BFABAAAAAA6027000843
:1020D400836A826992B9012B0AD0022B02D00BB118
:1020E40000207047C36A13F0807F28D10020704716
:1020F400C36AB3F1C07F24D000207047B2F5005FFB
:1021040009D0022B25D9032B25D1C36A13F0807F74
:1021140023D100207047032B03D8DFE803F0140415
:10212400140A00207047C36A13F0807F0DD1002089
:102134007047C36AB3F1C07F09D000207047012003
:10214400704701207047012070470120704701202B
:10215400704701207047002070470120704700003D
:1021640070B5044600F060FA002C5BD005460223EB
:1021740084F83530002384F834302268136823F05F
:102184000103136023681A6812F0010F0AD000F0EB
:102194004BFA431B052BF5D920236365032084F8F0
:1021A400350070BD1A68204911406268A068024376
:1021B400E06802432069024360690243A069024364
:1021C400E0690243206A02430A43616A04291ED07B
:1021D4001A602668756925F00705636A1D43042B98
:1021E40007D1A36A1D43E36A1BB12046FFF770FFC2
:1021F40090B975612046FFF74DFFE26D3F23934090
:10220400836000206065012384F83530C9E7E16A02
:10221400206B01430A43DBE740236365012084F814
:102224003500BEE70120BCE73F8010F038B5044616
:10223400856D90F8340001282BD0012084F83400F7
:1022440094F83500C0B2012804D0002384F8343057
:10225400022038BD022084F8350000206065204645
:10226400FFF702FFE26D3F239340AB6022681368DF
:1022740043F016031360236C23B12268136843F000
:10228400080313602268136843F0010313600020FD
:10229400DFE70220DDE790F83530DBB2022B03D014
:1022A4008023436501207047052380F83530026898
:1022B400136823F00103136000207047F0B583B066
:1022C400044600230193724B1D68724BA3FB053532
:1022D400AD0A876D3E68C26D08239340334210D027
:1022E40003681A6812F0040F0BD01A6822F0040273
:1022F4001A60C26D08239340BB60436D43F0010331
:102304004365E26D01239340334209D02268526948
:1023140012F0800F04D0BB60636D43F00203636569
:10232400E26D04239340334209D02268126812F00C
:10233400020F04D0BB60636D43F004036365E26D78
:1023440010239340334224D02268126812F0080FFD
:102354001FD0BB6023681A6812F4802F0DD01B684D
:1023640013F4002F04D1236C9BB12046984710E04E
:10237400A36C73B1204698470BE01A6812F4807F6F
:1023840003D11A6822F008021A60236C0BB12046AC
:102394009847E26D20239340334255D02268126857
:1023A40012F0100F50D0BB6094F83530DBB2052B1F
:1023B4000ED023681A6812F4802F33D01B6813F4EC
:1023C400002F2AD1636C002B3ED0204698473BE077
:1023D4002268136823F0160313602268536923F0FC
:1023E40080035361236CA3B12268136823F00803AC
:1023F4001360E26D3F239340BB60012384F83530C2
:10240400002384F83430236D002B3FD020469847B6
:102414003CE0A36C002BE7D1EBE7E36BA3B12046D0
:10242400984711E01A6812F4807F09D11A6822F0E3
:1024340010021A60012384F83530002384F8343004
:10244400E36B0BB120469847636DFBB1636D13F0EA
:10245400010F17D0052384F835302268136823F060
:1024640001031360019B01330193AB4204D8236839
:102474001B6813F0010FF5D1012384F835300023D4
:1024840084F83430E36C0BB12046984703B0F0BDB8
:10249400CC5D0020B5814E1B002807DB00F01F0235
:1024A400400901239340024A42F82030704700BF9C
:1024B40000E100E0002808DB0901C9B200F1604036
:1024C40000F5614080F80013704700F00F00090127
:1024D400C9B2014B1954704714ED00E000B500F087
:1024E4000700C0F1070CBCF1040F28BF4FF0040C27
:1024F400031D062B0FD9C31E4FF0FF3E0EFA0CF03E
:1025040021EA000199400EFA03FE22EA0E0241EA92
:1025140002005DF804FB0023EEE70000074AD368DD
:1025240023F4E0631B041B0C000200F4E06003438B
:1025340043F0BF6343F40033D360704700ED00E021
:1025440010B50446054BD868C0F30220FFF7C6FF58
:1025540001462046FFF7AEFF10BD00BF00ED00E0CE
:1025640008B5FFF799FF08BD0138B0F1807F0BD2A1
:102574004FF0E0235861054AF02182F8231000202F
:10258400986107221A6170470120704700ED00E04E
:1025940010B504460E4B1A784FF47A73B3FBF2F37A
:1025A4000C4A1068B0FBF3F0FFF7DEFF68B90F2C9C
:1025B40001D901200AE0002221464FF0FF30FFF745
:1025C400BFFF054B1C60002000E0012010BD00BFD0
:1025D400C45D0020CC5D0020C85D002008B50B4B15
:1025E4001A6842F400721A601A6842F480621A602F
:1025F4001A6842F480721A600320FFF78FFF0F20DD
:10260400FFF7C6FFFEF7C0FB002008BD003C0240F8
:10261400034A1168034B1B780B441360704700BFD7
:10262400E45E0020C45D0020014B1868704700BFC1
:10263400E45E0020034AD2F8883043F47003C2F801
:102644008830704700ED00E0DFF834D0FFF7F2FF88
:102654000C480D490D4A002302E0D458C4500433F9
:10266400C4188C42F9D30A4A0A4C002301E01360CF
:102674000432A242FBD300F019F8FEF7BDF970470B
:102684000000022000000020D05D00208827000800
:10269400D05D0020E85E0020FEE70244034693423A
:1026A40000D1704703F8011BF9E7000070B50D4D28
:1026B4000D4C641BA4100026A64209D10B4D0C4CF2
:1026C40000F018F8641BA4100026A64205D170BDC2
:1026D40055F8043B98470136EEE755F8043B984714
:1026E4000136F2E7802700088027000880270008C9
:1026F40084270008F8B500BFF8BC08BC9E467047A4
:0C270400F8B500BFF8BC08BC9E4670474A
:1027100053494E45205741564500000053415754F8
:102720004F4F5448205741564500000054524941EC
:102730004E474C4520574156450000005049414EF8
:102740004F205741564500004452554D20574156A1
:102750004500000047554954415220574156450015
:102760000006101600061016000000000000000011
:08277000010203040607080939
:08277800BCDAFF7F0100000044
:04278000E901000863
:04278400C501000883
:10278800803E0000FF07000000080000010800006C
:10279800F10A0000C20F0000B0050000650F00003C
:1027A8002A010000750C00002B07000060080000DB
:1027B80029060000E50A0000CB050000830A000096
:1027C8009207000052070000650900003707000063
:1027D800A5080000B808000058070000AA07000074
:1027E800A40800007D070000730800001508000019
:1027F800A607000032080000C407000047080000D0
:10280800C1070000130800001B0800007A0500003B
:102818000400000043020000FF0F00000000000059
:10282800110D00002906000024080000820700009E
:10283800A20A000056060000D10900006707000040
:102848005F070000B9090000C40600000F09000076
:102858005C08000055070000210800005608000029
:10286800AA0700007F080000EC070000C807000066
:1028780042080000C507000040080000BC0700002F
:102888001B080000110800000A000000AB0000004F
:10289800490A0000780A000036080000E106000036
:1028A800FE06000002080000260900000A090000D0
:1028B800540800008C070000A90700002808000041
:1028C80046080000C9070000F8070000D607000006
:1028D8002408000013080000ED07000004080000A9
:1028E800FE070000F5070000FE07000008080000CA
:1028F800FB070000FF07000001080000FA070000BE
:10290800FC07000006000000E6020000CE060000FA
:102918008E0800001D0B00003C0B00001B0A000085
:10292800D30800002E0600004809000046060000F3
:10293800CE0800008208000015090000FD0500000F
:1029480084090000B10700009B060000A3090000ED
:10295800260700000C0800005A08000015070000B0
:102968007908000011080000CC0700002E080000BC
:102978009307000023080000EB0700000A08000086
:10298800C3090000FD0700003906000075060000B5
:10299800790800002F09000021080000AA0700009C
:1029A80033080000040800000908000011080000AE
:1029B80008080000E8070000F4070000010800000C
:1029C800D1070000E9070000F0070000F107000048
:1029D800F9070000F80700000D080000F7070000DD
:1029E8000008000004080000FB07000002080000BF
:1029F800FF070000F707000003080000B207000007
:102A0800D60A0000100900007A09000073070000C8
:102A18006D0800004A08000013080000F8070000CD
:102A2800F8070000E2070000DD0700000F080000BB
:102A3800FB0700000008000002080000D50700009E
:102A48001E0800001A08000019080000E607000028
:102A580003080000F7070000F3070000F60700006E
:102A6800F9070000FB07000002080000FF0700004C
:102A780000080000FF0700006E0400007D0300004E
:102A8800930000003D0A0000F90A00008A080000CF
:102A9800FF050000D60500000C0800000009000032
:102AA800DE0800000B0800009D070000A7070000D3
:102AB800030800003308000000080000DB070000DE
:102AC800FA0700001D0800000B08000013080000AA
:102AD8000E080000E7070000FB070000FC070000E5
:102AE800FF0700000D080000E8070000FE070000CF
:102AF800F6070000760700007F090000DA040000EE
:102B0800B1060000A90700002E08000038080000E0
:102B180012080000BD070000D707000001080000E8
:102B28000D08000002080000010800000508000068
:102B3800AD0700009E0D0000E9040000D705000065
:102B48004A0B0000C9060000EE070000130500004C
:102B5800ED090000D80400001A0D0000D60400009A
:102B6800E007000049080000B5080000DD06000085
:102B780044090000D8070000560D0000ED050000CC
:102B8800250A000067080000210E0000290900003E
:102B98005E0900002C040000740900001B050000F9
:102BA800D30900003D080000A4070000BC0800008D
:102BB800AE08000012070000BA080000080800006C
:102BC80025070000EA08000041070000320800005D
:102BD8004C080000A30700001C080000DA070000EA
:102BE80041080000E6070000020800002408000071
:102BF800CE06000034080000A2080000F607000016
:102C08003F08000054080000800700001608000074
:102C18001308000002080000FA070000E707000098
:102C2800FB07000008080000FD070000CC070000B3
:102C3800BF070000CC070000F9070000F9070000F3
:102C48002508000001080000B5070000040800007E
:102C58001B080000FF070000FB070000FF0700003B
:102C6800FC07000000080000EF070000F90F000053
:102C7800F9070000B8080000F60400008709000002
:102C8800F3070000B3080000480600002B07000007
:102C9800ED0700009F08000041080000EC07000055
:102CA800DD0700000C080000F10700003B080000E9
:102CB80005080000D0070000FD070000F507000028
:102CC800EA07000014080000ED070000F6070000FE
:102CD8000208000006080000F8070000F4070000DA
:102CE8000108000009080000FF0F00003909000072
:102CF800810A000027070000FB080000C701000048
:102D080054070000D4070000F2070000770900000C
:102D18001308000075070000DD06000077090000B1
:102D28000E06000010090000470800009906000080
:102D3800D8080000F30700008807000042080000D8
:102D4800A0070000B407000036080000FE070000D6
:102D58002E080000A90700006F080000F507000012
:102D6800E7070000A1080000210900001307000080
:102D780046070000340700000C0800002108000086
:102D880031080000FC0700001A08000006080000CF
:102D9800E407000010080000ED0700000E0800001E
:102DA80037080000ED07000017080000F0070000D2
:102DB8000308000000080000F707000009080000E9
:102DC800FB070000FD070000FE070000F4070000F5
:102DD800FF07000001080000FA07000002080000D1
:102DE8003D070000C507000056050000400E000022
:102DF80000000000B00B0000720200005208000042
:102E0800D40800008308000030080000DD07000037
:102E18003A0700004C07000073090000C9050000CC
:102E2800610900003A07000090070000AD080000A3
:102E38009D0700000808000047080000A0070000E0
:102E4800040800003F080000E30700002108000014
:102E5800BE07000027080000FB070000CF0A00009B
:102E6800FA0F0000EC0B00003606000043070000D4
:102E78004A080000CB0A0000BA080000AA060000B1
:102E8800320700009D0700006C08000032080000AF
:102E980011080000E6070000DF070000070800002F
:102EA800F70700000D080000D2070000EB0700003C
:102EB800F907000013080000F60700000A080000E0
:102EC80008080000F30700000D080000E9070000EB
:102ED80026080000FD070000850700009C08000088
:102EE800DA090000C2080000F5070000F507000035
:102EF800DA070000EF0700003108000000080000B2
:102F080012080000FC070000F9070000FB0700009A
:102F180008080000450800005F040000710900006F
:102F2800090A0000BD020000640B0000B80300009D
:102F3800AD070000140A000051040000B10B0000A6
:102F4800B7060000A80700009507000084090000E4
:102F58007D060000C0090000460000004B0200008A
:102F680056070000B9080000270A0000F60700000D
:102F7800E5070000AC0800006B060000D00900005F
:102F880040060000740800004A0800000408000019
:102F9800BF0600007B0900008606000068080000E4
:102FA800E50800000A070000BD08000081070000CE
:102FB800D80700004D080000CC0700000D080000ED
:102FC800EC0700000F08000003080000F4070000E9
:102FD800A407000010000000E7030000DF0700005E
:102FE800CA080000340A00000F0C00003C09000069
:102FF8001D0900001F0500004709000076050000B4
:103008000B09000073080000D6070000B107000094
:1030180032090000B3060000A0080000880800007C
:103028000C070000E00800004B0700000308000040
:1030380054080000C107000019080000E607000056
:103048002A080000F2070000F90700008A070000BC
:1030580037000000CA0F0000BE0A0000E4090000A3
:1030680086060000AB0900009F090000AD090000BA
:10307800AB070000BB07000020070000D1070000D5
:103088002D08000019080000EE070000E9070000FD
:10309800340800001B080000F207000016080000B2
:1030A800F2070000E50700001508000011080000FD
:1030B80010080000FD070000FD07000008080000D8
:1030C800F7070000F6070000F00700009B05000066
:1030D8002C0300008F0D0000000000009B0C000076
:1030E8004A03000016080000BC080000AA0A0000F5
:1030F800F60600001008000031070000F506000081
:10310800DA0900005F070000A0070000B708000008
:1031180089070000D407000022090000B507000055
:10312800540800002608000074070000300800005A
:10313800200800003B080000D9070000180800001C
:10314800E6070000FA070000DE0800004909000051
:103158006709000009080000D908000010080000ED
:103168007808000072080000BC070000E3070000B0
:10317800F6070000F307000024080000000800001C
:10318800F20700004508000030080000F4070000BE
:10319800F307000007080000FD07000014080000FE
:1031A80004080000EB070000000800000108000008
:1031B800F9070000FF0700000208000001080000EE
:1031C800FB0700000F080000B706000072050000AA
:1031D800BD080000320700007C0800001408000049
:1031E80013080000960700000B080000F70700000E
:1031F80005080000050800000A080000EF070000A5
:10320800F9070000E5070000C507000012080000E4
:10321800020800001C080000010800001C0800004B
:1032280000080000FE0700000B080000FA07000075
:103238000008000001080000F9070000F40700007A
:10324800000000000D000000940C0000890B000035
:103258004409000078070000FE0600004B08000043
:103268005E0900000B090000EC0700008B07000056
:10327800A60700002508000033080000D807000052
:10328800DC070000F6070000340800000B08000007
:10329800090800000F080000ED070000FE07000005
:1032A8000708000015080000E707000017080000DD
:1032B800F00700001A080000EE07000005080000EB
:1032C800D9070000C00500000C0700001F08000017
:1032D800E8070000BC070000090800000A08000011
:1032E800F4070000F2070000FC07000004080000D3
:1032F8000808000000080000CA080000F7020000E3
:1033080003030000FD0F000002000000570F00003B
:10331800AA040000D90700006E0900003306000067
:103328004009000001090000D5070000020700005D
:1033380044090000500700004F090000FF0F00007B
:103348004B0B00003F0B00009C030000260A000006
:10335800280200009707000084080000C607000044
:103368009F0900007607000093070000640700002B
:10337800E1080000BB0500008A090000D306000030
:10338800BF070000DA0800005807000041080000E5
:1033980000080000950700002B0800001E08000028
:1033A800EF07000007080000D40700001E0800000F
:1033B800EE070000310800008D07000086070000B6
:1033C80012080000F10700008F08000078080000CC
:1033D800EB0700001E0800000E080000DB070000D5
:1033E8000108000011080000E60700000F080000AF
:1033F800010800000C080000030800002B0800006A
:10340800F3070000F3070000A4070000D10700003D
:103418000A080000C0070000FF07000004080000B9
:10342800FE0700000008000003080000F90700007C
:10343800A3040000DB030000D8040000630A0000B6
:10344800960B000045080000A206000021060000B7
:1034580005080000DB080000CC0800003A0800005E
:10346800B9070000C6070000070800000E080000A2
:103478000E080000F0070000FB0700001708000016
:10348800090800000608000000080000F207000014
:10349800F40700000A08000005080000FC07000007
:1034A8000008000008080000050800004F0600009A
:1034B8003F0100005D040000EF0F00000000000065
:1034C800CD0B00007E050000FA0700006A06000028
:1034D8001C0C000027050000D009000008070000A8
:1034E800C9060000F1070000E60800008407000094
:1034F800660800005F080000A606000048090000F2
:10350800C20700001B08000069080000AA070000A5
:103518000C080000F407000013080000FD07000075
:10352800CF07000014080000280800006607000004
:10353800370800001D0A0000A8070000190800004D
:10354800DB070000D40700003B0800000608000065
:10355800340800000D080000EA0700000D0800000C
:103568000308000000080000C6070000FC07000070
:10357800F1070000FB0700000E0800000A08000021
:10358800FA07000000080000FA070000050800001C
:10359800FD070000FD07000000080000FC07000010
:1035A80000080000F9070000ED0E0000FF0F000002
:1035B8009A0600007C0D000009040000E20C0000DF
:1035C80040080000F0080000AF040000420A0000B4
:1035D800640500007D0A0000D10700005F070000B5
:1035E8003B090000E1070000C8070000C808000008
:1035F8009407000068070000C60800005B07000089
:103608005C0800003A080000A1070000200800003C
:10361800CA07000048080000D20700000908000097
:103628003E080000FF0F00007C0800009E0200001A
:10363800170700006708000077090000A3070000CB
:10364800B40600007B0700004B0800008508000056
:1036580022080000F6070000D8070000F307000062
:103668001E0800002D080000E8070000F60700000B
:103678000E080000FB07000000080000FC0700001F
:10368800F1070000FC07000010080000EF07000029
:1036980002080000F4070000140800002B080000CE
:1036A8009E03000024070000EA08000069080000E3
:1036B80041080000B30700006D070000C7070000BD
:1036C800F30700000F08000004080000FF070000CF
:1036D800F407000004080000FC070000530A00007B
:1036E800FF0F0000DA020000420E00005301000044
:1036F8005F0F00004D070000A90800000307000045
:10370800CD0800006D060000AC0900001808000094
:103718001E0700002908000078080000FF070000C5
:10372800FF070000FF070000FF070000FF07000079
:103738001008000068080000F20800009308000064
:10374800310800000E080000F3070000F60700002B
:10375800EE070000EC0700003A08000060080000CF
:103768005C0800003F080000270800001E08000051
:10377800ED070000BC070000970700006207000083
:103788005A070000720700007E070000A00700002B
:10379800DC0700000F0800002B08000045080000A7
:1037A8004F080000390800001D0800000508000047
:1037B800EE070000E7070000E60700003E080000EB
:1037C800E3070000E40700007A0800001D08000075
:1037D80062080000160800007508000005080000CF
:1037E8005E080000D7070000F40700007A07000011
:1037F8001508000017080000F707000087080000F8
:10380800B10600006006000088060000AE0900004E
:10381800DF0800005F080000F1060000E60700006E
:1038280019080000A908000092070000B30700006B
:10383800C2070000E4070000320800002708000063
:10384800F8070000E207000006080000080800006A
:10385800EF070000DA070000F7070000060800007D
:103868000C080000F7070000FD0700001108000021
:103878001608000007080000F8070000000800000C
:10388800F7070000EC070000EA0700000008000046
:10389800FA070000FE070000EA070000FF07000023
:1038A800FF0700000C080000FB070000CA07000023
:1038B80036080000B10700005D080000DE070000C0
:1038C80061080000F5070000E90700000B08000088
:1038D800CD0700002C080000A00700002F080000FA
:1038E800F10700004A080000EF0700000B0800007D
:1038F800FD0700000908000001080000FB070000A0
:1039080000080000FB070000FF070000FA0700009E
:1039180002080000FF07000000080000FD07000083
:10392800FD07000087070000DA08000036080000DD
:103938008C0700009107000094070000E0080000D1
:103948005F080000F1070000B8070000B307000097
:10395800D708000060080000D20700008E070000AA
:10396800AB070000D108000028080000A1070000EC
:103978006C070000D5070000D208000011080000FD
:103988008B070000710700000A080000A508000066
:10399800EF070000960700009507000016080000D2
:1039A80091080000F6070000A8070000FB070000C8
:1039B8009E080000B8080000DB070000AE07000002
:1039C800C70700007208000094080000D107000033
:1039D800AE070000F4070000A70800001B0800005D
:1039E8000F08000016080000FE070000A8070000E6
:1039F80042080000CE080000A50700003F080000AC
:103A080047070000F5070000660800006607000089
:103A1800B60700003E08000032080000CE0700008C
:103A28000C080000EB07000000080000F307000086
:103A3800E60700000D08000015080000F107000067
:103A4800020800000508000009080000F907000046
:103A5800020800000F080000EF070000F40700004C
:103A68000508000008080000FD070000F70700002F
:103A7800F70700000008000004080000070800001D
:103A8800F5070000F5070000FC0700000708000024
:103A980002080000F10700000308000019080000F0
:103AA800B20700003C08000019080000A407000045
:103AB800AC0700000408000023080000BD07000050
:103AC800F10700000508000031080000E6070000C3
:103AD800E9070000D5070000FE07000014080000F1
:103AE800DC070000020800000B08000017080000AF
:103AF800FE07000003080000FC070000FE070000A6
:103B08000208000002080000FC070000FC07000093
:103B180001080000FC07000017080000C4070000A7
:103B2800AE0800002F08000036080000ED0700006E
:103B3800FB0700000B080000EE070000110800005A
:103B4800C107000024080000BB070000300800007F
:103B5800A207000045080000C30700005008000045
:103B6800E107000043080000F607000033080000E2
:103B7800FA0700000E080000F5070000FA07000029
:103B88000B080000E60700001A080000CF07000035
:103B98001F080000CF07000005080000A807000064
:103BA80037080000C107000011080000BA0700002C
:103BB80028080000F107000023080000DF070000C4
:103BC800F4070000C90700001008000020080000E2
:103BD80005080000CF0700008D0600007F070000E1
:103BE800BF0600004D090000E40800004509000078
:103BF8001D0800008E070000D70700000408000019
:103C080096070000EA070000C007000053080000FC
:103C180031080000610800002A080000CF070000F2
:103C280023080000E6070000F6070000F707000079
:103C380004080000FF07000001080000FF0700005B
:103C4800F307000007080000FD0700000208000055
:103C5800F6070000FF070000F20700000C0800004C
:103C6800FD07000018080000F5070000FB0700002A
:103C7800FD07000003080000020800000208000019
:103C880000080000FE070000FA070000FC0700001B
:103C980010080000ED070000EB070000E80700002F
:103CA800180800001F080000E5070000E5070000ED
:103CB8001C0800001D0800002A080000CA070000B0
:103CC800E2070000250800002A080000100800008C
:103CD800C0070000E5070000330800001E080000C8
:103CE80002080000E0070000FA07000008080000CA
:103CF800FF070000FA070000FD07000005080000A4
:103D080004080000FE070000F10700002808000072
:103D1800A70700007A080000D30700003708000052
:103D2800D60700003B080000DF0700002A08000053
:103D3800D80700000E08000007080000FC07000074
:103D48000D080000BB07000016080000B3070000BC
:103D580026080000AD07000029080000C60700007B
:103D68003D080000E307000039080000E2070000F2
:103D780027080000EB0700001D080000F4070000FA
:103D8800030800001D080000B10800006B080000CF
:103D980013080000CF070000760700000A0800009B
:103DA800BC07000040080000EC070000F207000014
:103DB80097070000FE070000EB07000060080000FE
:103DC8000E080000C5070000EE0700000407000009
:103DD800AE070000FD07000052080000B20800000E
:103DE800AE070000830700001208000099070000D2
:103DF8001C080000AA0700004C080000DE070000AD
:103E080092070000930700005C07000042080000CA
:103E18003E09000035080000D6070000B007000082
:103E28000F080000B6080000E2070000DB070000EA
:103E380091070000D40700009A080000130800004A
:103E4800E00700007807000009080000DD0800000E
:103E58001F080000AD0700006B07000046080000BF
:103E6800D0080000D207000087070000860700007E
:103E78007908000081080000AB070000A8070000CF
:103E8800AD070000B7070000360800006108000011
:103E9800040800002E07000025080000990800000B
:103EA8000B080000AC070000550700004908000097
:103EB800E0080000F90700003E07000000080000C5
:103EC8002A0900000F09000024070000C3060000AB
:103ED800940700003C080000810800003208000038
:103EE800CE070000DB070000040800007D07000083
:103EF800DD070000D4070000210800005E0800006C
:103F080023080000DD070000100800005B0800001F
:103F1800830800006B080000220800001F0800004A
:103F28004F08000020080000C50700009D0700009A
:103F38007407000056070000620700005F070000D2
:103F480070070000B4070000F2070000190800001D
:103F5800330800005A080000660800004D080000F9
:103F680026080000FF070000EF070000E607000032
:103F7800D7070000D9070000FA070000370800003B
:103F880057080000830800006F080000C1080000FF
:103F9800520800006F08000001080000F507000043
:103FA800A7070000C5070000730700006C070000A2
:103FB8009D07000060070000D3060000DD07000031
:103FC8000E080000BA070000650800000409000098
:103FD800C7070000FC0600000F080000A407000047
:103FE800B408000044070000B60700006508000098
:103FF8004C0800005F080000330800002508000096
:10400800FD070000FE070000EB070000F6070000B0
:10401800F90700000E080000120800000808000058
:104028000C0800000F0800000B0800000A08000038
:1040380000080000FD070000FB070000F307000070
:10404800F7070000EB070000F7070000F40700007F
:10405800030800000608000004080000FE0700002E
:10406800000800000808000002080000020800001C
:10407800150800004F070000530800000908000059
:10408800DE07000012080000CA0700002F08000021
:1040980096070000010800009B07000028080000A0
:1040A800CD07000047080000C20700002C080000E8
:1040B800EE0700000E08000002080000FA070000E2
:1040C80004080000F607000006080000F3070000D7
:1040D80004080000F807000005080000FB070000BE
:1040E80003080000FC070000010800004807000062
:1040F80012080000020900000E080000B9070000BD
:1041080069070000E9070000B6080000160800006B
:10411800E307000091070000EB070000B10800006A
:104128001D080000C80700007B07000014080000F5
:10413800BC080000FC070000A80700007E0700007C
:10414800420800009D080000EC0700009B070000E3
:10415800AA0700004508000082080000C607000002
:10416800BA070000A20700005B080000370800003B
:10417800D7070000C7070000C1070000DE080000DD
:1041880080080000FE070000BF070000C807000005
:104198008208000083080000D5070000A00700007F
:1041A80027080000520800005A0800007F08000095
:1041B800D3070000E40600008F070000BD070000D9
:1041C8001E0700008F0800003A0800008E07000054
:1041D800E6080000AC0700004D0700006108000079
:1041E8002B080000DC070000CC070000FE070000D9
:1041F8004108000028080000F8070000EF07000049
:10420800060800000408000002080000FD0700007E
:10421800F7070000F907000015080000190800005A
:10422800F3070000ED070000FF0700000708000083
:10423800FA07000004080000F10700000908000060
:10424800F9070000FB07000003080000F70700005B
:10425800030800000108000000080000F60700003D
:10426800F807000014080000F90700002E080000F5
:10427800A80700006A070000AA0700005508000008
:10428800C5070000E4070000FA0700005E08000008
:1042980004080000DC070000CD070000F00700005C
:1042A8002F080000C007000005080000FD070000F7
:1042B8002E0800000008000005080000FB070000A9
:1042C800000800000108000003080000FC070000C7
:1042D800F7070000FF07000006080000FE070000BF
:1042E8000D0800000F080000010800001808000071
:1042F800B4070000310800009D07000055080000C1
:10430800C607000064080000CD070000550800003B
:10431800EC0700004A080000E40700003408000029
:10432800E707000018080000EE070000E10700009A
:104338000E080000DA0700002F080000C50700007B
:1043480028080000C107000028080000C90700006D
:1043580034080000D507000042080000DB07000011
:10436800DE07000089070000DA070000CE0700001A
:104378000F08000003080000B9070000C507000087
:10438800DA07000040080000B7070000DD0700005A
:10439800AF07000019080000E6070000C307000087
:1043A80045080000A3080000F3060000800700008D
:1043B80080080000670800007607000080080000F9
:1043C80001080000B507000016080000B907000042
:1043D800EC0700004F07000033080000D507000075
:1043E800FA070000F4070000FD070000EF070000CF
:1043F800ED07000008080000F107000002080000AF
:10440800F907000016080000F90700000908000075
:10441800F907000009080000F90700000808000073
:10442800010800000008000000080000FF07000065
:10443800FC070000FE070000040800000208000056
:1044480006080000EF07000001080000F60700005A
:1044580009080000F6070000F9070000FF07000040
:10446800E8070000BA070000E60700001D08000082
:104478002E080000C9070000D50700001808000032
:104488002A08000010080000BB070000F60700001B
:104498001B08000025080000F9070000C0070000FD
:1044A800F6070000280800001D080000FA070000B1
:1044B800ED0700000308000007080000FD070000E2
:1044C800F9070000FC0700000708000003080000C7
:1044D800F70700008E0800007F070000430800006F
:1044E800A307000011080000EC070000EC0700001B
:1044F80018080000D4070000130800008F07000008
:1045080014080000B20700004A080000CF070000A6
:1045180058080000E607000055080000E007000002
:1045280037080000CD07000016080000E507000066
:104538000B08000003080000E2070000170800004D
:10454800CD07000017080000BC07000005080000A0
:104558004E070000D8070000F107000029080000F6
:10456800BF070000F10700008C07000044080000A6
:104578002008000033080000E2070000BE07000022
:10458800BA070000080800004F08000035080000BE
:10459800D008000012080000FD07000065060000B2
:1045A8004508000003080000960800009008000075
:1045B800FB070000B2070000FF0600007A070000B2
:1045C8002F080000FB07000050090000D507000075
:1045D800360700008E07000038080000C5080000F4
:1045E800F1070000CD0700008B0700002508000038
:1045F800C40800000E080000DF0700006A0700007A
:1046080024080000CF08000013080000AC070000D1
:10461800560700004A080000C9080000BD0700004E
:104628007707000079070000880800007808000074
:104638009C070000AC070000AF0700007D080000E1
:104648005E080000BA070000AE070000BE070000C1
:1046580002090000B50800006C07000068070000A8
:10466800D7070000C20800003D0800006F070000DF
:104678006607000054080000C3080000E4070000B3
:1046880062070000130800001D080000B6080000BB
:10469800C2070000B70600001508000083080000E4
:1046A80010080000E707000033080000EF070000CB
:1046B80039080000590800004D070000D107000024
:1046C800FF070000FF070000FE070000E2080000E7
:1046D800D4070000F406000040060000E7050000CB
:1046E8001C060000F2060000E60700007B08000038
:1046F8004A0900001909000077080000C7070000F0
:10470800D50700001A0800005408000056080000E9
:104718003E08000015080000FC070000FF07000025
:10472800FD07000007080000120800000408000048
:10473800E8070000EB070000EA070000EF070000A9
:10474800D7070000ED070000C40700005A08000062
:104758008B0800007208000032080000EE07000015
:10476800D8070000E70700000C0800001508000043
:104778000F08000003080000FD0700000A080000F9
:1047880000080000EF070000170700009E0900005E
:104798006207000029080000C10600006008000048
:1047A8001308000039080000450800008D070000C4
:1047B8007C070000AF070000C60800006D08000075
:1047C800E0070000A0080000C50700003F07000040
:1047D80094070000ED070000950800008C08000011
:1047E80044080000F40700007B070000A007000051
:1047F800B1070000D407000019080000D607000020
:10480800C007000095070000B60700000F08000069
:10481800E9080000910800009907000060070000FF
:10482800DC070000EA070000B50800000B090000DB
:10483800FE0A0000D20600000E080000BC070000B7
:104848009E070000B5070000A4050000130700003C
:10485800390700007F08000030090000FD0700004C
:1048680015080000BB07000062080000910800005E
:10487800CE070000EA070000DD070000FB07000084
:10488800940500007A090000DD090000740A0000A0
:104898002C07000050090000960800006807000077
:1048A800B9070000F5070000C9070000020800006A
:1048B800270700006F0800003E0700009907000066
:1048C80060070000220800009C0800002D08000076
:1048D80040080000DC07000015080000EF07000092
:1048E800D9070000E60700001808000009080000C2
:1048F8001F080000F4070000E7070000B5070000E4
:10490800D6070000B9070000EA070000C407000046
:10491800E90700004908000019080000080800001D
:104928000C0800000F080000FB070000FA07000051
:10493800F307000012080000FB0700000808000049
:10494800F307000003080000F9070000DF07000074
:10495800030800000A0800000B080000FD0700001B
:104968000D0800001B080000E9070000F50700001B
:10497800EC07000002080000680800006706000055
:10498800C4070000270900004C0800004507000084
:10499800E40700007D080000DB07000008080000AD
:1049A80001080000FC07000010080000EE070000E6
:1049B800EE07000019080000050700002C0700009A
:1049C80099080000E10800003D08000058060000B2
:1049D800E507000086070000B80700008F07000001
:1049E80013080000EB080000F40700004D08000061
:1049F8000D0800002C06000000080000DD0700007C
:104A08009908000081080000A0070000E9070000DD
:104A18003B090000CA070000B40700002F07000088
:104A28001A080000D5080000F40700007A08000002
:104A3800FE070000C20600001D080000AE070000C7
:104A4800A30600007A0800001A080000B908000050
:104A5800A80800008E0600009F07000065070000F8
:104A6800850800008C080000EA0700006D080000B7
:104A780000080000E80A0000AA0800005907000022
:104A8800B5080000440800005C0700006D0700003E
:104A9800FD0700002608000059080000BF070000B5
:104AA800B307000082070000C807000011080000D3
:104AB8000E07000037080000B3090000970900003E
:104AC80004090000D0070000B70600002207000014
:104AD800E807000053080000410800002F08000004
:104AE80019080000E1070000DE070000CD070000FC
:104AF800AD070000DA070000DF0700001B08000010
:104B080008080000E1070000DC0700000E080000AC
:104B1800110800001D0800000A0800001508000020
:104B28002F08000018080000E4070000CD07000067
:104B3800A6070000BB070000C4070000000800002B
:104B4800460800004808000032080000F907000085
:104B5800DB070000BE070000DC070000EA070000D2
:104B6800130800002B080000210800008D0A00002F
:104B7800120A00003407000016060000DB060000D9
:104B880031070000D506000079070000C5070000BE
:104B9800680800000B090000F30800007608000010
:104BA800E4070000CB07000073090000720700004B
:104BB80018060000FB050000F70600002D0800009D
:104BC8001009000028090000DB0800005608000052
:104BD8002508000022080000F7070000B6070000BB
:104BE80084070000B10700000D0800001907000045
:104BF80061070000B708000067090000910800007D
:104C08003607000018070000E6070000E60C000061
:104C180081060000640800007F0700005E080000AD
:104C28005109000039060000E50600001A070000D7
:104C38007C08000071090000FB070000DB08000089
:104C48008B0800002B080000420800004207000003
:104C5800C1070000C207000010080000610800003A
:104C6800E60700005D080000A4090000CA0900006A
:104C7800860600006F060000A8080000A5090000CD
:104C8800F5060000550800007507000047080000F9
:104C98009207000085070000B3080000FF07000026
:104CA8006B080000E10700006B08000031080000F5
:104CB800F7070000E807000021080000DE070000F1
:104CC800D0070000D90700000C0800000008000009
:104CD800F10700000A08000014080000F8070000A7
:104CE80058070000610800008A0800007C080000DE
:104CF80090070000010800000808000007080000ED
:104D0800C407000019080000080800002508000072
:104D1800F207000005080000DE0700000508000093
:104D2800E8070000FD070000110800001108000056
:104D3800FF070000F6070000F7070000F80700006B
:104D480004080000F3070000170800000508000029
:104D58000408000004080000F007000083020000B7
:104D68002E0600006A0700009B0900009A08000050
:104D7800CC060000740A0000F10800004908000091
:104D8800490700001E0800003E080000C607000092
:104D9800770700003C0800008A070000BC080000F4
:104DA800E80800009F060000F1070000490600001F
:104DB80098060000D8090000FF0800004A08000013
:104DC800DE070000DF070000C20700008E070000B2
:104DD8004C080000D9070000CF070000B407000006
:104DE800CD0800004C0800009C0700000E070000DA
:104DF80024080000D20800004C0800000008000049
:104E0800D40700003D08000014080000EB0700006C
:104E18001D080000F207000035060000CA07000060
:104E28003506000072060000FA0A0000AC0900000E
:104E38004F0900004308000002080000C0070000F6
:104E480001070000600800006407000087070000F1
:104E5800BD08000026080000EA0700006006000000
:104E68001B0800001309000020080000500700007C
:104E7800AF0700004E080000080800000A080000FC
:104E880026080000C6070000E60700000308000027
:104E9800140800008807000027050000B605000078
:104EA800DE05000055060000E0060000F5070000DA
:104EB800A4080000B10800000C090000BF080000A9
:104EC8003A08000028080000440800007D08000097
:104ED8003408000013080000D1070000C0070000D4
:104EE8003E08000036080000D9070000E907000066
:104EF8000C08000001080000F5070000E4070000A6
:104F080016080000F7070000F50700000D0800006C
:104F1800F0070000C0080000C10800003A080000BF
:104F2800DF070000D7070000DE070000FF070000CA
:104F380027080000210800002208000016080000C9
:104F48000B080000FD070000E5070000E30700006C
:104F58001C09000083070000FE050000DC080000B3
:104F68005C080000B107000006080000C707000041
:104F78003E08000049080000FB0700003A0700004F
:104F88000C08000046080000350800000F08000063
:104F9800450800006B0800008F0800009308000017
:104FA800B5080000E407000034070000D40600003C
:104FB8000A070000A60700000508000028080000EE
:104FC800CC070000A107000069070000D90800000D
:104FD8003308000044070000CB070000E008000089
:104FE8006B080000B40700006F070000FD07000011
:104FF800430700006C08000020090000A209000017
:10500800E1060000B9060000090700004F0700008C
:1050180043090000CD08000048090000D508000039
:10502800600800005508000040070000C90700009C
:10503800D40700001208000034080000C707000069
:10504800FE070000E0070000B50800000F0A000096
:1050580016080000E90600006A0600005D09000065
:1050680053070000D30600006D0800007708000011
:10507800E00800008C070000510800001F0800002D
:10508800E0070000E30700002D0800005D080000AD
:1050980076080000C5070000FC070000DC070000D8
:1050A8009D070000C1070000E30700003708000063
:1050B8001D0800000B080000CE070000DB070000F9
:1050C800EF070000DC070000E80700000508000003
:1050D80009080000E307000010080000520800005B
:1050E800BE070000DF070000D6070000E507000044
:1050F800F5070000F907000013080000FF0700008B
:1051080005080000EE070000FC0700002608000064
:105118001F080000F5070000F40700000108000060
:105128000C080000FF07000003080000F00700005B
:10513800EF070000E1070000F80700000108000081
:1051480008080000320700007A0800008308000001
:1051580096070000CB070000800800002108000027
:105168008B070000FC070000FC070000F1070000A7
:10517800F807000003080000FF070000FD07000013
:10518800170700001E0A000005090000C5090000F5
:1051980058070000F00700007C080000B70700006F
:1051A800E9070000500800005608000078080000D1
:1051B8001C07000016080000CE070000CE070000FC
:1051C8006F0600006A090000EB0A0000F9090000F8
:1051D800E406000025080000DF080000A20800001F
:1051E8006A070000D40700002808000077080000BC
:1051F8005C07000023080000A9070000E102000086
:1052080016080000FE080000C50A00007C0A00001D
:10521800FE070000F1080000D00700006F0800003A
:10522800EC0700003307000055080000EC070000F9
:105238006B0800000B080000700700003D07000025
:105248003F070000BF070000BE060000360500004B
:10525800B206000085090000A60900009C080000AD
:1052680018080000FE07000054080000310800007C
:10527800EF07000001080000FC070000B70A000063
:10528800C3090000B1070000AF06000027060000B0
:10529800EC060000E3070000B5080000B0080000B5
:1052A8004C080000570800002C080000F207000016
:1052B800F7070000CB070000F80700007B07000095
:1052C800AE0700002A08000032080000F0070000BE
:1052D80038080000520800003B0800002B080000B6
:1052E8000E080000FF070000E3070000D3070000D6
:1052F800F007000011080000FD070000F807000093
:10530800180800004508000031080000DF07000009
:10531800C4070000A4070000D5070000E10700004B
:1053280008080000230800002A08000018080000E8
:1053380003080000F2070000F80600004407000018
:10534800DE07000001070000820500006206000079
:1053580067080000E1080000BD08000055080000CB
:1053680031080000530800005C08000038080000FD
:10537800030800006105000063050000A1060000A5
:1053880076080000C0090000B2090000EB08000020
:1053980062080000A70700009D070000F70700004B
:1053A800320800002D0800003E0800004D080000EB
:1053B80038080000F4080000AC07000047070000A8
:1053C80022080000D50800004508000092070000E8
:1053D800E90700000C08000002090000A907000006
:1053E8004507000068070000A107000067080000E3
:1053F800E70700004A080000DF0800004309000032
:1054080073090000900800000A0800003C0700002B
:10541800B1070000DF070000B4070000D407000050
:10542800EF070000340800005108000011080000D0
:1054380070070000AC060000330700009107000069
:10544800400B00004E070000DC0700004308000086
:105458006D0800000108000097070000A107000080
:10546800BB0800007A0700002E080000C0070000F3
:105478000E080000C2070000DB0700003B08000020
:105488001A080000F8070000C7070000E907000035
:10549800F6070000FB070000BE070000090800002F
:1054A8000008000008080000130800004A0800006F
:1054B8000D080000CA070000760700000508000074
:1054C80003080000C2070000000800001F080000D1
:1054D80027080000FD070000F6070000000800008C
:1054E8000C080000FD07000005080000D0070000B8
:1054F80015080000EF07000015080000F607000077
:105508000A080000F5070000F6070000F40700008D
:10551800EE070000F4070000FC070000F907000090
:1055280000080000FA070000A10600007C0A00003D
:10553800F6070000580700009C060000EB08000072
:1055480089060000BF060000BF07000050080000E1
:10555800EA080000D6070000CC0800003D0800005B
:105568000A080000C907000073060000570600007B
:10557800E609000030080000E30700005C080000AE
:10558800A20800006E08000066070000E50700009A
:10559800210700003B0700009208000043080000B4
:1055A8000E080000990600003F070000FD080000F3
:1055B800C5080000E1070000B00700000E08000061
:1055C8002B08000021080000E40700002208000062
:1055D800C9070000FD0700001C080000370800008C
:1055E8001A080000740B0000180900005708000092
:1055F800D608000009090000910800006F070000A4
:105608004C070000F60600002B070000C008000049
:10561800640800001E0800005F080000FD07000085
:105628006F060000960700006A0900005408000091
:105638009B060000B1070000D608000061080000C2
:10564800DE07000057080000C50800000509000033
:10565800A408000058080000BA0700007F070000EF
:10566800FF07000000000000080000001000000014
:105678001800000020000000280000003100000091
:1056880039000000410000004900000051000000FE
:105698005A000000620000006A000000720000006A
:1056A8007A000000830000008B00000093000000D7
:1056B8009B000000A3000000AB000000B400000045
:1056C800BC000000C4000000CC000000D4000000B2
:1056D800DD000000E5000000ED000000F50000001E
:1056E800FD000000060100000E0100001601000088
:1056F8001E010000260100002F01000037010000F4
:105708003F010000470100004F0100005701000061
:1057180060010000680100007001000078010000CD
:10572800800100008901000091010000990100003A
:10573800A1010000A9010000B2010000BA010000A7
:10574800C2010000CA010000D2010000DB01000014
:10575800E3010000EB010000F3010000FB01000081
:10576800030200000C020000140200001C020000EA
:10577800240200002C020000350200003D02000057
:10578800450200004D020000550200005E020000C4
:10579800660200006E020000760200007E02000031
:1057A800870200008F020000970200009F0200009D
:1057B800A7020000AF020000B8020000C00200000B
:1057C800C8020000D0020000D8020000E102000078
:1057D800E9020000F1020000F902000001030000E4
:1057E8000A030000120300001A030000220300004D
:1057F8002A030000330300003B03000043030000BA
:105808004B030000530300005B0300006403000027
:105818006C030000740300007C0300008403000094
:105828008D030000950300009D030000A503000000
:10583800AD030000B6030000BE030000C60300006D
:10584800CE030000D6030000DE030000E7030000DB
:10585800EF030000F7030000FF0300000704000047
:1058680010040000180400002004000028040000B0
:10587800300400003904000041040000490400001D
:105888005104000059040000620400006A0400008A
:10589800720400007A040000820400008A040000F8
:1058A800930400009B040000A3040000AB04000064
:1058B800B3040000BC040000C4040000CC040000D1
:1058C800D4040000DC040000E5040000ED0400003E
:1058D800F5040000FD040000050500000E050000A9
:1058E800160500001E050000260500002E05000014
:1058F800360500003F050000470500004F05000081
:10590800570500005F0500006805000070050000ED
:10591800780500008005000088050000910500005A
:1059280099050000A1050000A9050000B1050000C7
:10593800BA050000C2050000CA050000D205000033
:10594800DA050000E2050000EB050000F3050000A1
:10595800FB050000030600000B060000140600000B
:105968001C060000240600002C0600003406000077
:105978003D060000450600004D06000055060000E3
:105988005D060000660600006E0600007606000050
:105998007E060000860600008E06000097060000BE
:1059A8009F060000A7060000AF060000B70600002B
:1059B800C0060000C8060000D0060000D806000097
:1059C800E0060000E9060000F1060000F906000004
:1059D8000107000009070000110700001A0700006E
:1059E800220700002A070000320700003A070000DB
:1059F800430700004B070000530700005B07000047
:105A0800630700006C070000740700007C070000B3
:105A1800840700008C070000950700009D07000020
:105A2800A5070000AD070000B5070000BD0700008E
:105A3800C6070000CE070000D6070000DE070000FA
:105A4800E6070000EF070000F7070000FF07000067
:105A5800070800000F0800001808000020080000D0
:105A6800280800003008000038080000410800003D
:105A780049080000510800005908000061080000AA
:105A880069080000720800007A0800008208000017
:105A98008A080000920800009B080000A308000084
:105AA800AB080000B3080000BB080000C4080000F1
:105AB800CC080000D4080000DC080000E40800005E
