:020000040800F2
:100000000000022041260008590D00085B0D000881
:100010005D0D00085F0D0008610D00080000000084
:10002000000000000000000000000000630D000858
:10003000650D000800000000670D0008690D00084C
:1000400091260008912600089126000891260008B4
:10005000912600089126000849060008912600080C
:100060009126000891260008912600089126000894
:100070009126000891260008912600089126000884
:10008000710D0008912600089126000891260008AD
:100090009126000891260008912600089126000864
:1000A0009126000891260008912600089126000854
:1000B0009126000891260008912600089126000844
:1000C0009126000891260008912600089126000834
:1000D0009126000891260008912600089126000824
:1000E0009126000891260008912600089126000814
:1000F0009126000891260008912600089126000804
:1001000091260008912600089126000891260008F3
:1001100091260008912600089126000891260008E3
:1001200091260008912600089126000891260008D3
:100130009126000800000000000000009126000841
:1001400091260008912600089126000891260008B3
:1001500091260008912600089126000891260008A3
:100160009126000891260008912600089126000893
:100170009126000891260008912600080000000042
:1001800000000000912600080000000000000000B0
:1001900091260008000000000000000091260008E1
:1001A0000000000000000000000000009126000890
:1001B0009126000891260008912600089126000843
:0401C000912600087C
:1001C40010B5054C237833B9044B13B10448AFF38D
:1001D40000800123237010BDF02E002000000000D9
:1001E400EC26000808B5034B1BB103490348AFF3E1
:1001F400008008BD00000000F42E0020EC2600085A
:1002040053B94AB9002908BF00281CBF4FF0FF3179
:100214004FF0FF3000F088B9ADF1080C6DE904CE61
:1002240000F006F8DDF804E0DDE9022304B07047CD
:100234002DE9F047089D8E4604468846002B4AD196
:100244008A42174662D9B2FA82F64EB1C6F1200349
:1002540001FA06F820FA03F3B74043EA0808B44069
:100264004FEA174E1FFA87FCB8FBFEF1230C0EFB76
:10027400118843EA084301FB0CF29A4209D9FB189E
:1002840001F1FF3080F0EA809A4240F2E7800239BF
:100294003B449A1AA3B2B2FBFEF00EFB102243EACF
:1002A400024300FB0CFC9C4509D9FB1800F1FF320A
:1002B40080F0D6809C4540F2D3803B44023840EA2B
:1002C4000140A3EB0C0300211DB1F3400022C5E95A
:1002D4000032BDE8F0878B4205D90DB1C5E90001B4
:1002E40000210846F5E7B3FA83F1002946D17345A6
:1002F40002D3824200F20581841A6EEB03020120CC
:100304009046002DE5D0C5E90048E2E7002A00F058
:100314009080B2FA82F6002E40F0A4808A1A030C70
:100324004FEA174E80B2BCB20121B2FBFEFC0EFBB9
:100334001C2243EA024304FB0CF29A4207D9FB183D
:100344000CF1FF3802D29A4200F2E080C4469B1AB4
:10035400B3FBFEF20EFB123340EA034302FB04F448
:100364009C4207D9FB1802F1FF3002D29C4200F2F2
:10037400CA8002461B1B42EA0C40A5E7C1F12006D5
:100384008B4022FA06F71F430EFA01F420FA06F313
:100394002EFA06FE4FEA1749234300FA01F81FFA22
:1003A40087FCBEFBF9F01C0C09FB10EE44EA0E447A
:1003B40000FB0CFEA64502FA01F209D93C1900F132
:1003C400FF3A80F09C80A64540F2998002383C4474
:1003D400A4EB0E041FFA83FEB4FBF9F309FB1344E8
:1003E4004EEA044403FB0CFCA44508D93C1903F170
:1003F400FF3E80F08280A4457FD9023B3C4443EA1F
:100404000040A4EB0C04A0FB02EC64457346E146F7
:1004140062D35FD05DB1B8EB030264EB090404FA64
:1004240006F622FA01F31E43CC40C5E9006400211C
:100434004FE7B1FBF2FC010C41EA0E4180B240EA05
:1004440001423B4638463C46B846BE462026B1FBF0
:10045400F7F1A2EB080241EA0C4166E7014618E70E
:1004640010462CE7C6F120022EFA02F3B740B14041
:1004740020FA02F24FEA174E0A43B3FBFEF8BCB26D
:100484000EFB1833110C41EA034108FB04F9B04098
:1004940089454FEA104380B23ED9791808F1FF3CF0
:1004A40001D289451FD8A1EB0901B1FBFEF909FB73
:1004B40004F80EFB191192B242EA0142424529D2D4
:1004C400BA1809F1FF31C4D24245C2D2A9F10201DE
:1004D4003A44BEE7F0459DD2BEEB02036CEB070C39
:1004E4000138E14696E7A7EB09094944A8F1020C53
:1004F400B1FBFEF909FB04F8DBE773467FE75046DE
:1005040066E70846FDE63B44023A33E7ACF1020CE9
:100514003B441CE749469CE7A1EB0901C446B1FBF7
:10052400FEF909FB04F8C4E7704700BF2DE9F04F5A
:1005340089B00024039404940594069407940094C9
:100544002F4B1A6B42F080021A631A6B02F080027E
:100554000092009A01941A6B42F001021A631A6B1A
:1005640002F001020192019A02941A6B42F0020213
:100574001A631B6B03F002030293029B4FF4404B7C
:10058400CDF80CB001260496DFF87CA003A95046F0
:1005940001F05EFC4FF44079CDF80C90DFF86C80EC
:1005A40003A9404601F054FC4FF410470397154D3E
:1005B40003A9284601F04CFC22465946504601F056
:1005C40037FD22464946404601F032FD224639466F
:1005D400284601F02DFD03964FF4881304930596E5
:1005E40003A9284601F034FC22460221062001F02A
:1005F400A1FF062001F0AEFF09B0BDE8F08F00BFF7
:10060400003802400000024000080240000402409A
:1006140000B583B000210191094B1A6B42F400121A
:100624001A631B6B03F400130193019B0A46102009
:1006340001F080FF102001F08DFF03B05DF804FB92
:100644000038024008B5012001F0FAFC01F0E6FF91
:10065400464B1B68C31A312B00D808BD434B1860A6
:10066400434B1A68D36823F40073D360414801F004
:100674000CFE41490A780132404B83FB020303EB31
:100684004303A2EB4303DBB20B700B78DBB2052B05
:100694005ED8DFE803F003172533414F012000F053
:1006A40099FA374800F08AFA4FF47A73354A364992
:1006B400304801F0B5FD2E4B1A68D36843F400733B
:1006C400D360CAE7012000F085FA304800F076FADA
:1006D4004FF47A732B4A2E49264801F0A1FDEAE72C
:1006E400012000F077FA2B4800F068FA4FF47A738F
:1006F400244A29491F4801F093FDDCE7012000F05A
:1007040069FA264800F05AFA4FF480631D4A2249D8
:10071400184801F085FDCEE7012000F05BFA20487F
:1007240000F04CFA4FF48063164A1B49114801F05B
:1007340077FDC0E7012000F04DFA1A4800F03EFAB8
:100744004FF480630F4A14490A4801F069FDB2E787
:10075400012000F03FFA0A4800F030FA4FF48063B9
:10076400084A0949034801F05BFDA4E70030002072
:10077400B82F0020102F00200C2F0020ABAAAA2A8B
:10078400042700083C040040441F002010270008F0
:10079400A40F0020202700080400002030270008B0
:1007A4003C2700084827000872B6FEE700B58FB062
:1007B40000230A930B930C930D93089309930193CD
:1007C40002930393049305930693079336484FF0DB
:1007D4008042026043608360344A1268013AC26016
:1007E4000361836100F090FC002850D14FF48053E2
:1007F4000A930AA92C4800F0EDFD002849D12A48A3
:1008040000F0AEFC002846D100230893099308A900
:10081400254800F071FF00283FD100220192029286
:100824000392059201A9204800F02AFD002836D140
:10083400002300931E4A116B41F400111163126BE3
:1008440002F400120092009A1A481B4A02604FF008
:10085400C062426040228260C3604FF480620261E1
:100864004FF4805242614FF4804282614FF48072AF
:10087400C2614FF400320262436201F06BFC80B942
:10088400094A0C4B53629A630FB05DF804FBFFF7FF
:100894008BFFFFF789FFFFF787FFFFF785FFFFF760
:1008A40083FFFFF781FF00BFB82F00200000002066
:1008B40000380240102F00208860024000B58FB03D
:1008C40000230A930B930C930D93089309930193BC
:1008D4000293039304930593069307931E481F4AB8
:1008E40002604360836040F6FF72C260036183610B
:1008F40000F00AFC28BB4FF480530A930AA9164857
:1009040000F068FDF8B9144800F056FCE8B900237B
:100914000893099308A9104800F0EEFEB8B96023C3
:1009240001930023029303930593082201A90A4823
:1009340000F0D5FC68B9084800F088FA0FB05DF8FB
:1009440004FBFFF731FFFFF72FFFFFF72DFFFFF742
:100954002BFFFFF729FF00BF702F00200004004089
:1009640000B595B03422002107A801F090FE0023C1
:10097400029303930493059306930093194A116C0D
:1009840041F080511164126C02F080520092009A7E
:10099400019315490A6822F4404242F480420A60F5
:1009A4000A6802F440420192019A0222079201224B
:1009B4000A9210220B920D9307A801F027F868B948
:1009C4000F2302930021039104910591069102A83B
:1009D40000F0D8FE20B915B05DF804FBFFF7E4FE83
:1009E400FFF7E2FE003802400070004008B501F055
:1009F400EFFDFFF7B5FFFFF799FDFFF709FEFFF7DE
:100A0400D5FEFFF75BFF08210F4800F0F3FD08B1A6
:100A1400FFF7CAFE00210D4800F06AFD08B1FFF798
:100A2400C3FE4FF47A730A4A0A490B4801F0F8FBF3
:100A340000F058F9094800F0C1F8044B1A68D3686B
:100A440043F40073D360FEE7702F0020B82F00201A
:100A54003C040040441F0020102F002004270008FD
:100A640082B000EB40000023019304E000BF00BF0C
:100A7400019B01330193019B8342F7D302B070477A
:100A840010B51420FFF7ECFF094CA36943F40043AD
:100A9400A3611420FFF7E4FFA36943F00043A361BB
:100AA4001420FFF7DDFFA36943F40043A36110BDE5
:100AB4000008024010B504463D4A936943F480435C
:100AC400936110F0800F41D13A4A936943F0004397
:100AD400936114F0400F40D0364A936943F4805335
:100AE400936114F0200F3ED0334A936943F40073AA
:100AF400936114F0100F3CD02F4A936943F4807330
:100B04009361FFF7BDFF14F0080F38D0294A9369A9
:100B140043F40043936114F0040F36D0254A9369DB
:100B240043F48053936114F0020F34D0224A936942
:100B340043F40073936114F0010F32D01E4A936999
:100B440043F480739361FFF79BFF10BDA2F500622D
:100B5400936943F400439361BBE7164A936943F0F6
:100B640080539361BDE7144A936943F00073936122
:100B7400BFE7114A936943F080739361C1E70D4A5B
:100B8400936943F000439361C5E70A4A936943F0CC
:100B940080539361C7E7084A936943F000739361F4
:100BA400C9E7054A936943F080739361CBE700BFBB
:100BB40000080240000002400004024038B5054627
:100BC400002403E0FFF776FF0134E4B2285D002837
:100BD400F8D138BD10B504463F4A936943F08043C9
:100BE400936110F0800F45D13C4A936943F0004370
:100BF400936114F0400F44D0384A936943F480530E
:100C0400936114F0200F42D0354A936943F4007382
:100C1400936114F0100F40D0314A936943F4807308
:100C24009361FFF72DFF14F0080F3CD02B4A936912
:100C340043F40043936114F0040F3AD0274A9369B4
:100C440043F48053936114F0020F38D0244A93691B
:100C540043F40073936114F0010F36D0204A936972
:100C640043F480739361FFF70BFF40F6B830FFF74E
:100C7400F7FE10BDA2F50062936943F4004393614B
:100C8400B7E7164A936943F080539361B9E7144A6E
:100C9400936943F000739361BBE7114A936943F08E
:100CA40080739361BDE70D4A936943F000439361F8
:100CB400C1E70A4A936943F080539361C3E7084A42
:100CC400936943F000739361C5E7054A936943F060
:100CD40080739361C7E700BF000802400000024030
:100CE4000004024008B5194B1A6B42F001021A6362
:100CF4001A6B42F002021A631A6B42F004021A637E
:100D0400134A136843F08243136002F58062136848
:100D140043F4A023136002F58062136843F0A043F8
:100D2400136047F23050FFF79BFE3320FFF752FF6A
:100D34003220FFF74FFF0C20FFF74CFF2820FFF76E
:100D440049FF0120FFF746FF08BD00BF00380240FD
:100D540000000240FEE7FEE7FEE7FEE7FEE770471D
:100D64007047704708B501F04DFC08BD08B502484E
:100D740001F09EFA08BD00BF102F002082B00021B0
:100D840000910B4B5A6C42F480425A645A6C02F440
:100D940080420092009A01911A6C42F080521A64C7
:100DA4001B6C03F080530193019B02B0704700BF9A
:100DB4000038024010B582B00368B3F1804F04D00C
:100DC4001E4A93422CD002B010BD04460023009367
:100DD4001B4A116C41F001011164126C02F0010212
:100DE4000092009A1748184A02604FF0C0624260AD
:100DF4008360C3604FF4806202614FF480524261A9
:100E04004FF480428261C3610362436201F0A2F93C
:100E140018B90C4B63629C63D5E7FFF7C5FCF8E790
:100E240000230193064B1A6C42F002021A641B6CF5
:100E340003F002030193019BC5E700BF00040040D7
:100E440000380240102F00208860024000B587B0AF
:100E540000230193029303930493059302680E4BBA
:100E64009A4202D007B05DF804FB002300930B4BB9
:100E74001A6B42F002021A631B6B03F00203009325
:100E8400009B0123019302230293059301A90448C3
:100E940000F0DEFFE6E700BF000400400038024037
:100EA4000004024030B4036A026A22F001020262C2
:100EB4004268846924F0730C0C6844EA0C0423F03F
:100EC400020C8B6843EA0C03114DA84203D005F5CC
:100ED4008065A84205D123F00803CD682B4323F095
:100EE40004030B4DA84203D005F58065A84207D141
:100EF40022F440724D6945EA020C8A6942EA0C0206
:100F0400426084614A684263036230BC704700BF38
:100F14000000014030B4036A026A22F48072026263
:100F24004268C46924F0730C0C6844EA0C0523F489
:100F340000738C6843EA0423114CA04203D004F5E7
:100F44008064A04206D123F40063CC6843EA0423FE
:100F540023F480630A4CA04203D004F58064A042C9
:100F640007D122F440524C6942EA04128C6942EAE5
:100F740004124260C5614A68C263036230BC7047B0
:100F84000000014030B4036A026A22F48052026213
:100F94004468C26922F4E6420D6842EA052223F459
:100FA40000538D6843EA0533094DA84203D005F583
:100FB4008065A84204D124F480444D6944EA851430
:100FC4004460C2614A680264036230BC704700BF77
:100FD4000000014010B4036A046A24F001040462AE
:100FE400846924F0F00C4CEA021223F00A030B4348
:100FF400826103625DF8044B704710B4036A046AAB
:1010040024F010040462846924F4704C4CEA023223
:1010140023F0A00343EA0113826103625DF8044BE9
:101024007047836823F070030B4343F00703836026
:1010340070477047704700000368324A904212D0EC
:10104400B0F1804F0FD0A2F57C4290420BD002F554
:101054008062904207D002F58062904203D002F58C
:101064007842904203D123F070034A681343254A1F
:1010740090422AD0B0F1804F27D0A2F57C42904212
:1010840023D002F5806290421FD002F58062904224
:101094001BD002F57842904217D002F5705290426C
:1010A40013D002F5806290420FD002F58062904224
:1010B4000BD0A2F59832904207D002F5806290429C
:1010C40003D002F58062904203D123F44073CA68CE
:1010D400134323F080034A6913438A68C2620A688F
:1010E4008262084A904203D002F58062904201D1A4
:1010F4000A690263026842F004020260012242614A
:10110400036070470000014040B310B5044690F8F6
:101114003D30F3B1022384F83D30214651F8040BED
:10112400FFF78AFF012384F8463084F83E3084F8C0
:101134003F3084F8403084F8413084F8423084F8F9
:10114400433084F8443084F8453084F83D3000203E
:1011540010BD80F83C30FFF72DFEDBE7012070471F
:1011640040B310B5044690F83D30F3B1022384F83F
:101174003D30214651F8040BFFF75EFF012384F84C
:10118400463084F83E3084F83F3084F8403084F8A8
:10119400413084F8423084F8433084F8443084F891
:1011A400453084F83D30002010BD80F83C30FFF716
:1011B40040FFDBE70120704740B310B5044690F8C8
:1011C4003D30F3B1022384F83D30214651F8040B3D
:1011D400FFF732FF012384F8463084F83E3084F868
:1011E4003F3084F8403084F8413084F8423084F849
:1011F400433084F8443084F8453084F83D3000208E
:1012040010BD80F83C30FFF715FFDBE70120704785
:1012140030B4036A026A22F01002026244688269EE
:1012240022F4E6420D6842EA052223F020038D6889
:1012340043EA0513114DA84203D005F58065A84281
:1012440006D123F08003CD6843EA051323F040035D
:101254000A4DA84203D005F58065A84207D124F4BD
:1012640040644D6944EA85048D6944EA8504446018
:1012740082614A688263036230BC704700000140A7
:1012840090F83C30012B28D010B50446012380F897
:101294003C300C2A1CD8DFE802F0071B1B1B0C1B7C
:1012A4001B1B111B1B1B16000068FFF7FBFD002016
:1012B4000FE00068FFF7ACFF00200AE00068FFF7CA
:1012C40029FE002005E00068FFF75CFE002000E036
:1012D4000120002384F83C3010BD0220704738B54B
:1012E40090F83C30012B66D004460D46012380F86B
:1012F4003C300C2A5AD8DFE802F0075959591B59D7
:1013040059593059595944000068FFF7CBFD2268F8
:10131400936943F0080393612268936923F00403FB
:1013240093612268936929690B43936100203EE02D
:101334000068FFF76DFF2268936943F400639361CB
:101344002268936923F4806393612268936929690D
:1013540043EA01239361002029E00068FFF7DAFDE6
:101364002268D36943F00803D3612268D36923F068
:101374000403D3612268D36929690B43D361002034
:1013840015E00068FFF7FEFD2268D36943F40063AB
:10139400D3612268D36923F48063D3612268D3695B
:1013A400296943EA0123D361002000E001200023DE
:1013B40084F83C3038BD0220FCE710B4846824F47F
:1013C4007F4C42EA03220A4342EA0C0282605DF83F
:1013D400044B704790F83C30012B78D010B504468C
:1013E400012380F83C30022380F83D300268936882
:1013F40023F47F4323F0770393600B68602B4CD076
:1014040023D8402B54D011D8202B03D00AD80BB1A9
:10141400102B05D119462068FFF703FE002028E0B1
:10142400012026E0302BF5D0012022E0502B0AD1F8
:10143400CA6849680068FFF7CDFD50212068FFF7AE
:10144400F0FD002015E0012013E0B3F5805F3AD0F1
:10145400B3F5005F14D0702B37D1CB684A68896824
:101464000068FFF7AAFF2268936843F0770393604C
:101474000020012384F83D30002384F83C3010BD63
:10148400CB684A6889680068FFF797FF2268936809
:1014940043F4804393600020EBE7CA68496800681E
:1014A400FFF7ABFD60212068FFF7BBFD0020E0E7FC
:1014B400CA6849680068FFF78DFD40212068FFF77E
:1014C400B0FD0020D5E70020D3E70120D1E70220BA
:1014D400704701F01F014FF0010C0CFA01FC036A84
:1014E40023EA0C030362036A8A40134303627047CE
:1014F40010B504460846002942D194F83E30DBB2C8
:10150400013B18BF0123002B6ED1002851D10223C7
:1015140084F83E30012201462068FFF7DAFF236891
:10152400334A934203D002F58062934203D15A6C4A
:1015340042F400425A6423682D4A934249D0B3F1DD
:10154400804F46D0A2F57C42934242D002F580629D
:1015540093423ED002F5806293423AD002F578423B
:10156400934236D002F57052934232D0A2F59432AF
:1015740093422ED01A6842F001021A60002032E031
:10158400042908D008290DD094F84130DBB2013B7E
:1015940018BF0123B7E794F83F30DBB2013B18BF13
:1015A4000123B0E794F84030DBB2013B18BF0123BC
:1015B400A9E7042805D0082807D0022384F841307D
:1015C400A8E7022384F83F30A4E7022384F84030DC
:1015D400A0E79A6802F00702062A07D01A6842F0C8
:1015E40001021A60002010BD0120FCE70020FAE788
:1015F4000000014010B504460846002942D194F881
:101604003E30DBB2013B18BF0123002B6ED1002812
:1016140051D1022384F83E30012201462068FFF7AD
:1016240058FF2368334A934203D002F58062934201
:1016340003D15A6C42F400425A6423682D4A9342FF
:1016440049D0B3F1804F46D0A2F57C42934242D0B8
:1016540002F5806293423ED002F5806293423AD012
:1016640002F57842934236D002F57052934232D05A
:10167400A2F5943293422ED01A6842F001021A6005
:10168400002032E0042908D008290DD094F8413014
:10169400DBB2013B18BF0123B7E794F83F30DBB25C
:1016A400013B18BF0123B0E794F84030DBB2013BA3
:1016B40018BF0123A9E7042805D0082807D002236E
:1016C40084F84130A8E7022384F83F30A4E70223DA
:1016D40084F84030A0E79A6802F00702062A07D08F
:1016E4001A6842F001021A60002010BD0120FCE7D4
:1016F4000020FAE70000014090F83C20012A3DD088
:1017040010B40346012280F83C20022280F83D20D8
:1017140002685068946820F0700C086840EA0C0075
:1017240050601A68164882421AD0B2F1804F17D01E
:10173400A0F57C40824213D000F5806082420FD035
:1017440000F5806082420BD000F57840824207D0D9
:1017540000F57050824203D0A0F59430824204D147
:1017640024F08004496821439160012283F83D20DC
:10177400002083F83C005DF8044B7047022070475A
:1017840000000140002800F09B8070B50D4604461F
:101794004F4B1B6803F00F038B4208D2CBB24C4A69
:1017A4001370136803F00F038B4240F08B8023689F
:1017B40013F0020F17D013F0040F04D0454A9368B6
:1017C40043F4E0539360236813F0080F04D0414AB4
:1017D400936843F4604393603E4A936823F0F003B4
:1017E400A1680B439360236813F0010F32D0636840
:1017F400012B21D09A1E012A25D9364A126812F0EB
:10180400020F61D033498A6822F0030213438B60CC
:1018140000F004FF06462F4B9B6803F00C0362683C
:10182400B3EB820F16D000F0F9FE801B41F288332F
:101834009842F0D9032042E0264A126812F4003F8D
:10184400E0D101203BE0234A126812F0007FD9D195
:10185400012034E01E4B1B6803F00F03AB4207D991
:10186400EAB21B4B1A701B6803F00F03AB422DD175
:10187400236813F0040F06D0164A936823F4E05348
:10188400E1680B439360236813F0080F07D0114AF3
:10189400936823F46043216943EAC103936000F031
:1018A40021F80C4B9B68C3F303130B4AD35CD84059
:1018B4000A4B18600A4B186800F064FE002070BDE3
:1018C400012070470120FAE70120F8E70120F6E73C
:1018D400003C0240003802405C270008EC2E002047
:1018E400E82E002008B5464B9B6803F00C03082B38
:1018F40005D00C2B43D0042B7FD1424819E0404B38
:101904005A6802F03F025B6813F4800F12D03C4B1C
:101914005968C1F388113B480023A1FB0001FEF77D
:101924006FFC374B5B68C3F3014301335B00B0FBCF
:10193400F3F008BD324B5868C0F388104FEA401CDE
:10194400BCEB000C6EEB0E0E4FEA8E1343EA9C6365
:101954004FEA8C11B1EB0C0163EB0E03DB0043EA9D
:101964005173C90011EB000C43F1000399020023E9
:101974004FEA8C2041EA9C51FEF742FCD1E7204B10
:101984005A6802F03F025B6813F4800F10D01C4BBE
:101994005968C1F388111B480023A1FB0001FEF71D
:1019A4002FFC174B5B68C3F30273B0FBF3F0C0E783
:1019B400134B5868C0F388104FEA401CBCEB000C72
:1019C4006EEB0E0E4FEA8E1343EA9C634FEA8C11C2
:1019D400B1EB0C0163EB0E03DB0043EA5173C90066
:1019E40011EB000C43F10003990200234FEA8C2011
:1019F40041EA9C51FEF704FCD3E7034899E700BF92
:101A04000038024040787D010024F400002800F0F2
:101A1400018270B582B00446036813F0010F41D00F
:101A2400994B9B6803F00C03042B32D0964B9B68B4
:101A340003F00C03082B27D0934B9B6803F00C0393
:101A44000C2B59D06368B3F5803F5BD0B3F5A02F5E
:101A54005ED08D4B1A6822F480321A601A6822F420
:101A640080221A606368002B5CD000F0D7FD054625
:101A7400854B1B6813F4003F14D100F0CFFD401BCD
:101A84006428F5D90320CCE17F4B5B6813F4800F05
:101A9400D2D07D4B1B6813F4003F03D06368002B46
:101AA40000F0BA81236813F0020F60D0764B9B6874
:101AB40013F00C0F4AD0744B9B6803F00C03082BF3
:101AC4003FD0714B9B6803F00C030C2B69D0E36887
:101AD400002B75D06D4B01221A6000F09FFD054666
:101AE400694B1B6813F0020F61D100F097FD401B96
:101AF4000228F5D9032094E1634B5B6813F4800F4B
:101B0400A0D0C6E7604A136843F480331360A9E7A2
:101B14005D4B1A6842F480221A601A6842F48032DB
:101B24001A609FE700F07AFD0546574B1B6813F4D3
:101B3400003FB7D000F072FD401B6428F5D90320A4
:101B44006FE1514B5B6813F4800FBAD14E4B1B68A5
:101B540013F0020F03D0E368012B40F05F814A4A7F
:101B6400136823F0F803216943EAC103136023686F
:101B740013F0080F49D06369002B33D0434B012283
:101B8400C3F8802E00F04AFD05463F4B5B6F13F00F
:101B9400020F3AD100F042FD401B0228F5D9032080
:101BA4003FE1394B5B6813F4800F90D1CEE7364A9E
:101BB400136823F0F803216943EAC1031360D6E7ED
:101BC400324B00221A6000F029FD05462E4B1B689B
:101BD40013F0020FCBD000F021FD401B0228F5D9F1
:101BE40003201EE1294B0022C3F8802E00F016FDCD
:101BF4000546254B5B6F13F0020F06D000F00EFD77
:101C0400401B0228F5D903200BE1236813F0040FCD
:101C140076D01D4B1B6C13F0805F33D100230193EE
:101C2400194B1A6C42F080521A641B6C03F08053F7
:101C34000193019B0125164B1B6813F4807F29D067
:101C4400A368012B3AD0052B3ED00F4B1A6F22F01C
:101C540001021A671A6F22F004021A67A368002BA4
:101C64003CD000F0DBFC0646074B1B6F13F0020F61
:101C740045D100F0D3FC801B41F288339842F3D95C
:101C84000320CEE00025D6E700380240000047429A
:101C9400007000406B4A136843F48073136000F0D3
:101CA400BDFC0646674B1B6813F4807FC8D100F067
:101CB400B5FC801B0228F5D90320B2E0624A136FF9
:101CC40043F001031367C9E75F4B1A6F42F0040244
:101CD4001A671A6F42F001021A67BFE700F09EFC10
:101CE4000646594B1B6F13F0020F08D000F096FC08
:101CF400801B41F288339842F3D9032091E0EDB977
:101D0400A369002B00F08C804F4A926802F00C0209
:101D1400082A54D0022B17D04C4B00221A6600F02C
:101D24007DFC0446484B1B6813F0007F45D000F04F
:101D340075FC001B0228F5D9032072E0424A136C9B
:101D440023F080531364DBE7404B00221A6600F053
:101D540065FC05463C4B1B6813F0007F06D000F081
:101D64005DFC401B0228F5D903205AE0E369226A8E
:101D74001343626A43EA8213A26A5208013A43EAAD
:101D84000243E26A43EA0263226B43EA02732E4A85
:101D940053602E4B01221A6600F040FC04462A4B85
:101DA4001B6813F0007F06D100F038FC001B0228EA
:101DB400F5D9032035E0002033E0002031E0012B89
:101DC40031D0214B5B6803F48001E26991422CD14C
:101DD40003F03F02216A8A4229D1616A47F6C07240
:101DE4001A40B2EB811F24D103F44031A26A520895
:101DF400013AB1EB024F1ED103F07062E16AB2EB1B
:101E0400016F1AD103F0E043226BB3EB027F16D1CA
:101E1400002006E001207047012002E0012000E0DC
:101E2400002002B070BD0120FBE70120F9E701208A
:101E3400F7E70120F5E70120F3E70120F1E70120AE
:101E4400EFE700BF00700040003802400000474246
:101E540000230F2B00F2E38070B582B065E0856843
:101E64004FEA430E032404FA0EF425EA0405CC6871
:101E740004FA0EF42C438460446824EA02044A6899
:101E8400C2F300129A40224342605CE0DC0808344A
:101E940050F8242003F00705AD004FF00F0E0EFAA2
:101EA40005FE22EA0E0E0A69AA4042EA0E0240F832
:101EB40024205CE0062200E0002202FA0EF22A430B
:101EC4000234574D45F82420564A94686FEA0C02B0
:101ED40024EA0C054E6816F4801F01D04CEA040570
:101EE400504CA560E46802EA04054E6816F4001F2D
:101EF40001D04CEA04054B4CE560646802EA040531
:101F04004E6816F4003F01D04CEA0405454C656068
:101F1400246822404D6815F4803F01D04CEA040245
:101F2400404C226001330F2B77D801229A400C6871
:101F340004EA020C32EA0404F4D14C6804F0030409
:101F4400013C012C8BD94A6802F00302032A09D010
:101F5400C4685D000322AA4024EA02048A68AA40F5
:101F64002243C2604A6802F00302022A8ED0046847
:101F74004FEA430E032202FA0EF224EA02044A68EC
:101F840002F0030202FA0EF2224302604A6812F4DB
:101F9400403FC7D000220192234A546C44F4804449
:101FA4005464526C02F480420192019A9C08A51C6C
:101FB4001B4A52F8255003F0030E4FEA8E0E0F22EF
:101FC40002FA0EF225EA0205184A90423FF474AF71
:101FD40002F58062904216D002F58062904214D0DD
:101FE40002F58062904212D002F58062904210D0D5
:101FF40002F5806290420ED002F5806290423FF476
:1020040059AF072259E7012257E7022255E7032275
:1020140053E7042251E705224FE702B070BD704731
:1020240000380140003C01400038024000000240FA
:102034000AB18161704709048161704770470000EB
:1020440008B5054B5B69034200D108BD024B5861DA
:10205400FFF7F4FFF9E700BF003C014030B4056826
:102064002C6824F480242C60046863608368402B0B
:1020740005D0036899600368DA6030BC7047036870
:102084009A600368D960F8E710B40368D9B21039CC
:102094000A4AA2FB01421209094CA25CC2655F29EB
:1020A40007D96FF3090304338365806D5DF8044B2E
:1020B40070476FF309038365F7E700BFABAAAAAAC9
:1020C40054270008836A826992B9012B0AD0022B33
:1020D40002D00BB100207047C36A13F0807F28D16F
:1020E40000207047C36AB3F1C07F24D0002070473A
:1020F400B2F5005F09D0022B25D9032B25D1C36A81
:1021040013F0807F23D100207047032B03D8DFE82E
:1021140003F01404140A00207047C36A13F0807F8C
:102124000DD100207047C36AB3F1C07F09D00020ED
:10213400704701207047012070470120704701203B
:10214400704701207047012070470020704701202C
:102154007047000070B5044600F060FA002C5BD0B4
:102164000546022384F83530002384F8343022688D
:10217400136823F00103136023681A6812F0010F37
:102184000AD000F04BFA431B052BF5D920236365D5
:10219400032084F8350070BD1A6820491140626834
:1021A400A0680243E0680243206902436069024375
:1021B400A0690243E0690243206A02430A43616A58
:1021C40004291ED01A602668756925F00705636A1C
:1021D4001D43042B07D1A36A1D43E36A1BB12046A8
:1021E400FFF770FF90B975612046FFF74DFFE26D70
:1021F4003F239340836000206065012384F83530D9
:10220400C9E7E16A206B01430A43DBE740236365C6
:10221400012084F83500BEE70120BCE73F8010F0C0
:1022240038B50446856D90F8340001282BD0012080
:1022340084F8340094F83500C0B2012804D0002397
:1022440084F83430022038BD022084F835000020A0
:1022540060652046FFF702FFE26D3F239340AB60C9
:102264002268136843F016031360236C23B12268B9
:10227400136843F0080313602268136843F00103F2
:1022840013600020DFE70220DDE790F83530DBB291
:10229400022B03D08023436501207047052380F877
:1022A40035300268136823F001031360002070477F
:1022B400F0B583B0044600230193724B1D68724B42
:1022C400A3FB0535AD0A876D3E68C26D08239340B4
:1022D400334210D003681A6812F0040F0BD01A6846
:1022E40022F004021A60C26D08239340BB60436D60
:1022F40043F001034365E26D01239340334209D067
:102304002268526912F0800F04D0BB60636D43F001
:1023140002036365E26D04239340334209D02268CB
:10232400126812F0020F04D0BB60636D43F0040323
:102334006365E26D10239340334224D0226812680F
:1023440012F0080F1FD0BB6023681A6812F4802FA4
:102354000DD01B6813F4002F04D1236C9BB12046CD
:10236400984710E0A36C73B1204698470BE01A68B5
:1023740012F4807F03D11A6822F008021A60236CD9
:102384000BB120469847E26D20239340334255D049
:102394002268126812F0100F50D0BB6094F83530E8
:1023A400DBB2052B0ED023681A6812F4802F33D0C9
:1023B4001B6813F4002F2AD1636C002B3ED02046F7
:1023C40098473BE02268136823F0160313602268E1
:1023D400536923F080035361236CA3B1226813680B
:1023E40023F008031360E26D3F239340BB60012395
:1023F40084F83530002384F83430236D002B3FD02B
:10240400204698473CE0A36C002BE7D1EBE7E36B55
:10241400A3B12046984711E01A6812F4807F09D1CD
:102424001A6822F010021A60012384F83530002360
:1024340084F83430E36B0BB120469847636DFBB1ED
:10244400636D13F0010F17D0052384F8353022682B
:10245400136823F001031360019B01330193AB4222
:1024640004D823681B6813F0010FF5D1012384F805
:102474003530002384F83430E36C0BB120469847A0
:1024840003B0F0BDEC2E0020B5814E1B002807DB05
:1024940000F01F02400901239340024A42F8203011
:1024A400704700BF00E100E0002808DB0901C9B261
:1024B40000F1604000F5614080F80013704700F0BF
:1024C4000F000901C9B2014B1954704714ED00E023
:1024D40000B500F00700C0F1070CBCF1040F28BFE1
:1024E4004FF0040C031D062B0FD9C31E4FF0FF3E03
:1024F4000EFA0CF021EA000199400EFA03FE22EADA
:102504000E0241EA02005DF804FB0023EEE700003E
:10251400074AD36823F4E0631B041B0C000200F495
:10252400E060034343F0BF6343F40033D360704778
:1025340000ED00E010B50446054BD868C0F3022056
:10254400FFF7C6FF01462046FFF7AEFF10BD00BFF0
:1025540000ED00E008B5FFF799FF08BD0138B0F1C0
:10256400807F0BD24FF0E0235861054AF02182F8B6
:1025740023100020986107221A61704701207047D8
:1025840000ED00E010B504460E4B1A784FF47A7350
:10259400B3FBF2F30C4A1068B0FBF3F0FFF7DEFF75
:1025A40068B90F2C01D901200AE0002221464FF01E
:1025B400FF30FFF7BFFF054B1C60002000E0012047
:1025C40010BD00BFE42E0020EC2E0020E82E0020D9
:1025D40008B50B4B1A6842F400721A601A6842F488
:1025E40080621A601A6842F480721A600320FFF74E
:1025F4008FFF0F20FFF7C6FFFEF7C0FB002008BDCA
:10260400003C0240034A1168034B1B780B441360DF
:10261400704700BF04300020E42E0020014B1868EE
:10262400704700BF04300020034AD2F8883043F4D6
:102634007003C2F88830704700ED00E0DFF834D052
:10264400FFF7F2FF0C480D490D4A002302E0D4586D
:10265400C4500433C4188C42F9D30A4A0A4C0023E8
:1026640001E013600432A242FBD300F019F8FEF734
:10267400BDF970470000022000000020F02E002069
:102684007C270008F02E002008300020FEE70244DA
:102694000346934200D1704703F8011BF9E7000099
:1026A40070B50D4D0D4C641BA4100026A64209D133
:1026B4000B4D0C4C00F018F8641BA4100026A64225
:1026C40005D170BD55F8043B98470136EEE755F83F
:1026D400043B98470136F2E7742700087427000882
:1026E4007427000878270008F8B500BFF8BC08BCB8
:1026F4009E467047F8B500BFF8BC08BC9E467047BC
:1027040053494E4520574156450000005341575404
:102714004F4F5448205741564500000054524941F8
:102724004E474C4520574156450000005049414E04
:102734004F205741564500004452554D20574156AD
:102744004500000047554954415220574156450021
:10275400000610160006101600000000000000001D
:08276400010203040607080945
:08276C00C8DAFF7F0100000044
:04277400E90100086F
:04277800C50100088F
:10277C00803E000000000000080000001000000077
:10278C0018000000200000002800000031000000AC
:10279C003900000041000000490000005100000019
:1027AC005A000000620000006A0000007200000085
:1027BC007A000000830000008B00000093000000F2
:1027CC009B000000A3000000AB000000B400000060
:1027DC00BC000000C4000000CC000000D4000000CD
:1027EC00DD000000E5000000ED000000F500000039
:1027FC00FD000000060100000E01000016010000A3
:10280C001E010000260100002F010000370100000E
:10281C003F010000470100004F010000570100007C
:10282C0060010000680100007001000078010000E8
:10283C008001000089010000910100009901000055
:10284C00A1010000A9010000B2010000BA010000C2
:10285C00C2010000CA010000D2010000DB0100002F
:10286C00E3010000EB010000F3010000FB0100009C
:10287C00030200000C020000140200001C02000005
:10288C00240200002C020000350200003D02000072
:10289C00450200004D020000550200005E020000DF
:1028AC00660200006E020000760200007E0200004C
:1028BC00870200008F020000970200009F020000B8
:1028CC00A7020000AF020000B8020000C002000026
:1028DC00C8020000D0020000D8020000E102000093
:1028EC00E9020000F1020000F902000001030000FF
:1028FC000A030000120300001A0300002203000068
:10290C002A030000330300003B03000043030000D4
:10291C004B030000530300005B0300006403000042
:10292C006C030000740300007C03000084030000AF
:10293C008D030000950300009D030000A50300001B
:10294C00AD030000B6030000BE030000C603000088
:10295C00CE030000D6030000DE030000E7030000F6
:10296C00EF030000F7030000FF0300000704000062
:10297C0010040000180400002004000028040000CB
:10298C003004000039040000410400004904000038
:10299C005104000059040000620400006A040000A5
:1029AC00720400007A040000820400008A04000013
:1029BC00930400009B040000A3040000AB0400007F
:1029CC00B3040000BC040000C4040000CC040000EC
:1029DC00D4040000DC040000E5040000ED04000059
:1029EC00F5040000FD040000050500000E050000C4
:1029FC00160500001E050000260500002E0500002F
:102A0C00360500003F050000470500004F0500009B
:102A1C00570500005F050000680500007005000008
:102A2C007805000080050000880500009105000075
:102A3C0099050000A1050000A9050000B1050000E2
:102A4C00BA050000C2050000CA050000D20500004E
:102A5C00DA050000E2050000EB050000F3050000BC
:102A6C00FB050000030600000B0600001406000026
:102A7C001C060000240600002C0600003406000092
:102A8C003D060000450600004D06000055060000FE
:102A9C005D060000660600006E060000760600006B
:102AAC007E060000860600008E06000097060000D9
:102ABC009F060000A7060000AF060000B706000046
:102ACC00C0060000C8060000D0060000D8060000B2
:102ADC00E0060000E9060000F1060000F90600001F
:102AEC000107000009070000110700001A07000089
:102AFC00220700002A070000320700003A070000F6
:102B0C00430700004B070000530700005B07000061
:102B1C00630700006C070000740700007C070000CE
:102B2C00840700008C070000950700009D0700003B
:102B3C00A5070000AD070000B5070000BD070000A9
:102B4C00C6070000CE070000D6070000DE07000015
:102B5C00E6070000EF070000F7070000FF07000082
:102B6C00070800000F0800001808000020080000EB
:102B7C002808000030080000380800004108000058
:102B8C0049080000510800005908000061080000C5
:102B9C0069080000720800007A0800008208000032
:102BAC008A080000920800009B080000A30800009F
:102BBC00AB080000B3080000BB080000C40800000C
:102BCC00CC080000D4080000DC080000E408000079
:102BDC00ED080000F5080000FD08000005090000E4
:102BEC000D090000150900001E090000260900004F
:102BFC002E090000360900003E09000047090000BC
:102C0C004F090000570900005F0900006709000028
:102C1C007009000078090000800900008809000094
:102C2C009009000099090000A1090000A909000001
:102C3C00B1090000B9090000C1090000CA0900006F
:102C4C00D2090000DA090000E2090000EA090000DC
:102C5C00F3090000FB090000030A00000B0A000046
:102C6C00130A00001C0A0000240A00002C0A0000B1
:102C7C00340A00003C0A0000440A00004D0A00001F
:102C8C00550A00005D0A0000650A00006D0A00008C
:102C9C00760A00007E0A0000860A00008E0A0000F8
:102CAC00960A00009F0A0000A70A0000AF0A000065
:102CBC00B70A0000BF0A0000C80A0000D00A0000D2
:102CCC00D80A0000E00A0000E80A0000F00A000040
:102CDC00F90A0000010B0000090B0000110B0000A9
:102CEC00190B0000220B00002A0B0000320B000015
:102CFC003A0B0000420B00004B0B0000530B000082
:102D0C005B0B0000630B00006B0B0000740B0000EE
:102D1C007C0B0000840B00008C0B0000940B00005B
:102D2C009C0B0000A50B0000AD0B0000B50B0000C8
:102D3C00BD0B0000C50B0000CE0B0000D60B000035
:102D4C00DE0B0000E60B0000EE0B0000F70B0000A2
:102D5C00FF0B0000070C00000F0C0000170C00000C
:102D6C00200C0000280C0000300C0000380C000077
:102D7C00400C0000480C0000510C0000590C0000E5
:102D8C00610C0000690C0000710C00007A0C000052
:102D9C00820C00008A0C0000920C00009A0C0000BF
:102DAC00A30C0000AB0C0000B30C0000BB0C00002B
:102DBC00C30C0000CC0C0000D40C0000DC0C000098
:102DCC00E40C0000EC0C0000F40C0000FD0C000006
:102DDC00050D00000D0D0000150D00001D0D00006F
:102DEC00260D00002E0D0000360D00003E0D0000DB
:102DFC00460D00004F0D0000570D00005F0D000048
:102E0C00670D00006F0D0000770D0000800D0000B5
:102E1C00880D0000900D0000980D0000A00D000022
:102E2C00A90D0000B10D0000B90D0000C10D00008E
:102E3C00C90D0000D20D0000DA0D0000E20D0000FB
:102E4C00EA0D0000F20D0000FB0D0000030E000067
:102E5C000B0E0000130E00001B0E0000230E0000D2
:102E6C002C0E0000340E00003C0E0000440E00003E
:102E7C004C0E0000550E00005D0E0000650E0000AB
:102E8C006D0E0000750E00007E0E0000860E000018
:102E9C008E0E0000960E00009E0E0000A70E000085
:102EAC00AF0E0000B70E0000BF0E0000C70E0000F2
:102EBC00CF0E0000D80E0000E00E0000E80E00005F
:102ECC00F00E0000F80E0000010F0000090F0000CA
:102EDC00110F0000190F0000210F00002A0F000035
:102EEC00320F00003A0F0000420F00004A0F0000A2
:102EFC00530F00005B0F0000630F00006B0F00000E
:102F0C00730F00007B0F0000840F00008C0F00007B
:102F1C00940F00009C0F0000A40F0000AD0F0000E8
:102F2C00B50F0000BD0F0000C50F0000CD0F000055
:102F3C00D60F0000DE0F0000E60F0000EE0F0000C1
:102F4C00F60F0000FF0F0000F60F0000EE0F000060
:102F5C00E60F0000DE0F0000D60F0000CD0F0000C2
:102F6C00C50F0000BD0F0000B50F0000AD0F000035
:102F7C00A40F00009C0F0000940F00008C0F0000A9
:102F8C00840F00007B0F0000730F00006B0F00001C
:102F9C00630F00005B0F0000530F00004A0F00008E
:102FAC00420F00003A0F0000320F00002A0F000001
:102FBC00210F0000190F0000110F0000090F000075
:102FCC00010F0000F80E0000F00E0000E80E0000EB
:102FDC00E00E0000D80E0000CF0E0000C70E00005F
:102FEC00BF0E0000B70E0000AF0E0000A70E0000D1
:102FFC009E0E0000960E00008E0E0000860E000045
:10300C007E0E0000750E00006D0E0000650E0000B7
:10301C005D0E0000550E00004C0E0000440E00002A
:10302C003C0E0000340E00002C0E0000230E00009D
:10303C001B0E0000130E00000B0E0000030E000010
:10304C00FB0D0000F20D0000EA0D0000E20D000087
:10305C00DA0D0000D20D0000C90D0000C10D0000FA
:10306C00B90D0000B10D0000A90D0000A00D00006D
:10307C00980D0000900D0000880D0000800D0000E0
:10308C00770D00006F0D0000670D00005F0D000054
:10309C00570D00004F0D0000460D00003E0D0000C6
:1030AC00360D00002E0D0000260D00001D0D000039
:1030BC00150D00000D0D0000050D0000FD0C0000AD
:1030CC00F40C0000EC0C0000E40C0000DC0C000024
:1030DC00D40C0000CC0C0000C30C0000BB0C000096
:1030EC00B30C0000AB0C0000A30C00009A0C000009
:1030FC00920C00008A0C0000820C00007A0C00007C
:10310C00710C0000690C0000610C0000590C0000EF
:10311C00510C0000480C0000400C0000380C000062
:10312C00300C0000280C0000200C0000170C0000D4
:10313C000F0C0000070C0000FF0B0000F70B000049
:10314C00EE0B0000E60B0000DE0B0000D60B0000BF
:10315C00CE0B0000C50B0000BD0B0000B50B000032
:10316C00AD0B0000A50B00009C0B0000940B0000A5
:10317C008C0B0000840B00007C0B0000740B000017
:10318C006B0B0000630B00005B0B0000530B00008B
:10319C004B0B0000420B00003A0B0000320B0000FE
:1031AC002A0B0000220B0000190B0000110B000071
:1031BC00090B0000010B0000F90A0000F00A0000E6
:1031CC00E80A0000E00A0000D80A0000D00A00005B
:1031DC00C80A0000BF0A0000B70A0000AF0A0000CE
:1031EC00A70A00009F0A0000960A00008E0A000041
:1031FC00860A00007E0A0000760A00006D0A0000B4
:10320C00650A00005D0A0000550A00004D0A000026
:10321C00440A00003C0A0000340A00002C0A00009A
:10322C00240A00001C0A0000130A00000B0A00000C
:10323C00030A0000FB090000F3090000EA09000082
:10324C00E2090000DA090000D2090000CA090000F6
:10325C00C1090000B9090000B1090000A90900006A
:10326C00A1090000990900009009000088090000DC
:10327C00800900007809000070090000670900004F
:10328C005F090000570900004F09000047090000C2
:10329C003E090000360900002E0900002609000036
:1032AC001E090000150900000D09000005090000A9
:1032BC00FD080000F5080000ED080000E40800001F
:1032CC00DC080000D4080000CC080000C408000092
:1032DC00BB080000B3080000AB080000A308000006
:1032EC009B080000920800008A0800008208000079
:1032FC007A080000720800006908000061080000EC
:10330C00590800005108000049080000410800005D
:10331C0038080000300800002808000020080000D1
:10332C00180800000F08000007080000FF07000045
:10333C00F7070000EF070000E6070000DE070000BB
:10334C00D6070000CE070000C6070000BD0700002E
:10335C00B5070000AD070000A50700009D070000A1
:10336C00950700008C070000840700007C07000014
:10337C00740700006C070000630700005B07000087
:10338C00530700004B070000430700003A070000FA
:10339C00320700002A070000220700001A0700006D
:1033AC00110700000907000001070000F9060000E2
:1033BC00F1060000E9060000E0060000D806000057
:1033CC00D0060000C8060000C0060000B7060000CA
:1033DC00AF060000A70600009F060000970600003D
:1033EC008E060000860600007E06000076060000B1
:1033FC006E060000660600005D0600005506000023
:10340C004D060000450600003D0600003406000095
:10341C002C060000240600001C0600001406000008
:10342C000B06000003060000FB050000F30500007E
:10343C00EB050000E2050000DA050000D2050000F3
:10344C00CA050000C2050000BA050000B105000065
:10345C00A9050000A10500009905000091050000D8
:10346C00880500008005000078050000700500004C
:10347C00680500005F050000570500004F050000BF
:10348C00470500003F050000360500002E05000032
:10349C00260500001E050000160500000E050000A4
:1034AC0005050000FD040000F5040000ED0400001B
:1034BC00E5040000DC040000D4040000CC0400008F
:1034CC00C4040000BC040000B3040000AB04000002
:1034DC00A30400009B040000930400008A04000075
:1034EC00820400007A040000720400006A040000E8
:1034FC00620400005904000051040000490400005B
:10350C0041040000390400003004000028040000CD
:10351C002004000018040000100400000704000040
:10352C00FF030000F7030000EF030000E7030000B7
:10353C00DE030000D6030000CE030000C60300002B
:10354C00BE030000B6030000AD030000A50300009D
:10355C009D030000950300008D0300008403000010
:10356C007C030000740300006C0300006403000083
:10357C005B030000530300004B03000043030000F7
:10358C003B030000330300002A0300002203000069
:10359C001A030000120300000A03000001030000DC
:1035AC00F9020000F1020000E9020000E102000053
:1035BC00D8020000D0020000C8020000C0020000C7
:1035CC00B8020000AF020000A70200009F0200003A
:1035DC00970200008F020000870200007E020000AC
:1035EC00760200006E020000660200005E0200001F
:1035FC00550200004D020000450200003D02000093
:10360C00350200002C020000240200001C02000005
:10361C00140200000C02000003020000FB01000079
:10362C00F3010000EB010000E3010000DB010000EE
:10363C00D2010000CA010000C2010000BA01000062
:10364C00B2010000A9010000A101000099010000D5
:10365C009101000089010000800100007801000048
:10366C0070010000680100006001000057010000BB
:10367C004F010000470100003F010000370100002E
:10368C002F010000260100001E01000016010000A1
:10369C000E01000006010000FD000000F500000016
:1036AC00ED000000E5000000DD000000D40000008B
:1036BC00CC000000C4000000BC000000B4000000FE
:1036CC00AB000000A30000009B0000009300000072
:1036DC008B000000830000007A00000072000000E4
:1036EC006A000000620000005A0000005100000057
:1036FC0049000000410000003900000031000000CA
:10370C00280000002000000018000000100000003D
:10371C000800000000000000040000000800000089
:10372C000C00000010000000140000001800000045
:10373C001C000000200000002400000028000000F5
:10374C002D000000310000003500000039000000A1
:10375C003D00000041000000450000004900000051
:10376C004D00000051000000550000005A00000000
:10377C005E00000062000000660000006A000000AD
:10378C006E00000072000000760000007A0000005D
:10379C007E00000083000000870000008B0000000A
:1037AC008F00000093000000970000009B000000B9
:1037BC009F000000A3000000A7000000AB00000069
:1037CC00B0000000B4000000B8000000BC00000015
:1037DC00C0000000C4000000C8000000CC000000C5
:1037EC00D0000000D4000000D9000000DD00000073
:1037FC00E1000000E5000000E9000000ED00000021
:10380C00F1000000F5000000F9000000FD000000D0
:10381C0001010000060100000A0100000E01000079
:10382C0012010000160100001A0100001E01000028
:10383C0022010000260100002A0100002F010000D7
:10384C0033010000370100003B0100003F01000084
:10385C0043010000470100004B0100004F01000034
:10386C0053010000570100005C01000060010000E2
:10387C0064010000680100006C0100007001000090
:10388C0074010000780100007C0100008001000040
:10389C0085010000890100008D01000091010000EC
:1038AC0095010000990100009D010000A10100009C
:1038BC00A5010000A9010000AD010000B20100004B
:1038CC00B6010000BA010000BE010000C2010000F8
:1038DC00C6010000CA010000CE010000D2010000A8
:1038EC00D6010000DB010000DF010000E301000055
:1038FC00E7010000EB010000EF010000F301000004
:10390C00F7010000FB010000FF01000003020000B2
:10391C00080200000C02000010020000140200005B
:10392C00180200001C02000020020000240200000B
:10393C00280200002C0200003102000035020000B9
:10394C00390200003D020000410200004502000067
:10395C00490200004D020000510200005502000017
:10396C00590200005E0200006202000066020000C4
:10397C006A0200006E020000720200007602000073
:10398C007A0200007E020000820200008702000022
:10399C008B0200008F0200009302000097020000CF
:1039AC009B0200009F020000A3020000A70200007F
:1039BC00AB020000AF020000B4020000B80200002D
:1039CC00BC020000C0020000C4020000C8020000DB
:1039DC00CC020000D0020000D4020000D80200008B
:1039EC00DD020000E1020000E5020000E902000037
:1039FC00ED020000F1020000F5020000F9020000E7
:103A0C00FD02000001030000050300000A03000092
:103A1C000E03000012030000160300001A0300003E
:103A2C001E03000022030000260300002A030000EE
:103A3C002E03000033030000370300003B0300009B
:103A4C003F03000043030000470300004B0300004A
:103A5C004F03000053030000570300005B030000FA
:103A6C006003000064030000680300006C030000A6
:103A7C007003000074030000780300007C03000056
:103A8C008003000084030000880300008D03000005
:103A9C009103000095030000990300009D030000B2
:103AAC00A1030000A5030000A9030000AD03000062
:103ABC00B1030000B6030000BA030000BE0300000F
:103ACC00C2030000C6030000CA030000CE030000BE
:103ADC00D2030000D6030000DA030000DE0300006E
:103AEC00E3030000E7030000EB030000EF0300001A
:103AFC00F3030000F7030000FB030000FF030000CA
:103B0C0003040000070400000C0400001004000073
:103B1C0014040000180400001C0400002004000021
:103B2C0024040000280400002C04000030040000D1
:103B3C0034040000390400003D040000410400007E
:103B4C0045040000490400004D040000510400002D
:103B5C0055040000590400005D04000062040000DC
:103B6C00660400006A0400006E0400007204000089
:103B7C00760400007A0400007E0400008204000039
:103B8C00860400008A0400008F04000093040000E7
:103B9C00970400009B0400009F040000A304000095
:103BAC00A7040000AB040000AF040000B304000045
:103BBC00B8040000BC040000C0040000C4040000F1
:103BCC00C8040000CC040000D0040000D4040000A1
:103BDC00D8040000DC040000E0040000E504000050
:103BEC00E9040000ED040000F1040000F5040000FD
:103BFC00F9040000FD0400000105000005050000AB
:103C0C00090500000E050000120500001605000055
:103C1C001A0500001E050000220500002605000004
:103C2C002A0500002E0500003205000036050000B4
:103C3C003B0500003F050000430500004705000060
:103C4C004B0500004F050000530500005705000010
:103C5C005B0500005F0500006405000068050000BE
:103C6C006C0500007005000074050000780500006C
:103C7C007C0500008005000084050000880500001C
:103C8C008C050000910500009505000099050000C9
:103C9C009D050000A1050000A5050000A905000078
:103CAC00AD050000B1050000B5050000BA05000027
:103CBC00BE050000C2050000C6050000CA050000D4
:103CCC00CE050000D2050000D6050000DA05000084
:103CDC00DE050000E2050000E7050000EB05000032
:103CEC00EF050000F3050000F7050000FB050000E0
:103CFC00FF05000003060000070600000B0600008D
:103D0C001006000014060000180600001C06000037
:103D1C002006000024060000280600002C060000E7
:103D2C003006000034060000380600003D06000096
:103D3C004106000045060000490600004D06000043
:103D4C005106000055060000590600005D060000F3
:103D5C0061060000660600006A0600006E060000A0
:103D6C0072060000760600007A0600007E0600004F
:103D7C0082060000860600008A0600008E060000FF
:103D8C0093060000970600009B0600009F060000AB
:103D9C00A3060000A7060000AB060000AF0600005B
:103DAC00B3060000B7060000BB060000C00600000A
:103DBC00C4060000C8060000CC060000D0060000B7
:103DCC00D4060000D8060000DC060000E006000067
:103DDC00E4060000E9060000ED060000F106000014
:103DEC00F5060000F9060000FD06000001070000C2
:103DFC0005070000090700000D070000110700006F
:103E0C00160700001A0700001E070000220700001A
:103E1C00260700002A0700002E07000032070000CA
:103E2C00360700003A0700003F0700004307000078
:103E3C00470700004B0700004F0700005307000026
:103E4C00570700005B0700005F07000063070000D6
:103E5C00670700006C070000700700007407000083
:103E6C00780700007C070000800700008407000032
:103E7C00880700008C0700009007000095070000E1
:103E8C00990700009D070000A1070000A50700008E
:103E9C00A9070000AD070000B1070000B50700003E
:103EAC00B9070000BD070000C2070000C6070000EC
:103EBC00CA070000CE070000D2070000D60700009A
:103ECC00DA070000DE070000E2070000E60700004A
:103EDC00EB070000EF070000F3070000F7070000F6
:103EEC00FB070000FF0700000308000007080000A4
:103EFC000B0800000F080000130800001808000051
:103F0C001C080000200800002408000028080000FD
:103F1C002C080000300800003408000038080000AD
:103F2C003C0800004108000045080000490800005A
:103F3C004D08000051080000550800005908000009
:103F4C005D080000610800006508000069080000B9
:103F5C006E08000072080000760800007A08000065
:103F6C007E08000082080000860800008A08000015
:103F7C008E08000092080000970800009B080000C3
:103F8C009F080000A3080000A7080000AB08000071
:103F9C00AF080000B3080000B7080000BB08000021
:103FAC00BF080000C4080000C8080000CC080000CE
:103FBC00D0080000D4080000D8080000DC0800007D
:103FCC00E0080000E4080000E8080000ED0800002C
:103FDC00F1080000F5080000F9080000FD080000D9
:103FEC000109000005090000090900000D09000085
:103FFC0011090000150900001A0900001E09000033
:10400C0022090000260900002A0900002E090000E0
:10401C0032090000360900003A0900003E09000090
:10402C0043090000470900004B0900004F0900003C
:10403C0053090000570900005B0900005F090000EC
:10404C0063090000670900006B090000700900009B
:10405C0074090000780900007C0900008009000048
:10406C0084090000880900008C09000090090000F8
:10407C0094090000990900009D090000A1090000A5
:10408C00A5090000A9090000AD090000B109000054
:10409C00B5090000B9090000BD090000C109000004
:1040AC00C6090000CA090000CE090000D2090000B0
:1040BC00D6090000DA090000DE090000E209000060
:1040CC00E6090000EA090000EE090000F30900000F
:1040DC00F7090000FB090000FF090000030A0000BB
:1040EC00070A00000B0A00000F0A0000130A000068
:1040FC00170A00001C0A0000200A0000240A000015
:10410C00280A00002C0A0000300A0000340A0000C3
:10411C00380A00003C0A0000400A0000440A000073
:10412C00490A00004D0A0000510A0000550A00001F
:10413C00590A00005D0A0000610A0000650A0000CF
:10414C00690A00006D0A0000720A0000760A00007D
:10415C007A0A00007E0A0000820A0000860A00002B
:10416C008A0A00008E0A0000920A0000960A0000DB
:10417C009A0A00009F0A0000A30A0000A70A000088
:10418C00AB0A0000AF0A0000B30A0000B70A000037
:10419C00BB0A0000BF0A0000C30A0000C80A0000E6
:1041AC00CC0A0000D00A0000D40A0000D80A000093
:1041BC00DC0A0000E00A0000E40A0000E80A000043
:1041CC00EC0A0000F00A0000F50A0000F90A0000F1
:1041DC00FD0A0000010B0000050B0000090B00009C
:1041EC000D0B0000110B0000150B0000190B00004B
:1041FC001E0B0000220B0000260B00002A0B0000F7
:10420C002E0B0000320B0000360B00003A0B0000A6
:10421C003E0B0000420B0000460B00004B0B000055
:10422C004F0B0000530B0000570B00005B0B000002
:10423C005F0B0000630B0000670B00006B0B0000B2
:10424C006F0B0000740B0000780B00007C0B00005F
:10425C00800B0000840B0000880B00008C0B00000E
:10426C00900B0000940B0000980B00009C0B0000BE
:10427C00A10B0000A50B0000A90B0000AD0B00006A
:10428C00B10B0000B50B0000B90B0000BD0B00001A
:10429C00C10B0000C50B0000CA0B0000CE0B0000C8
:1042AC00D20B0000D60B0000DA0B0000DE0B000076
:1042BC00E20B0000E60B0000EA0B0000EE0B000026
:1042CC00F20B0000F70B0000FB0B0000FF0B0000D3
:1042DC00030C0000070C00000B0C00000F0C00007E
:1042EC00130C0000170C00001B0C0000200C00002D
:1042FC00240C0000280C00002C0C0000300C0000DA
:10430C00340C0000380C00003C0C0000400C000089
:10431C00440C0000480C00004D0C0000510C000037
:10432C00550C0000590C00005D0C0000610C0000E5
:10433C00650C0000690C00006D0C0000710C000095
:10434C00760C00007A0C00007E0C0000820C000041
:10435C00860C00008A0C00008E0C0000920C0000F1
:10436C00960C00009A0C00009E0C0000A30C0000A0
:10437C00A70C0000AB0C0000AF0C0000B30C00004D
:10438C00B70C0000BB0C0000BF0C0000C30C0000FD
:10439C00C70C0000CC0C0000D00C0000D40C0000AA
:1043AC00D80C0000DC0C0000E00C0000E40C000059
:1043BC00E80C0000EC0C0000F00C0000F40C000009
:1043CC00F90C0000FD0C0000010D0000050D0000B3
:1043DC00090D00000D0D0000110D0000150D000061
:1043EC00190D00001D0D0000210D0000260D000010
:1043FC002A0D00002E0D0000320D0000360D0000BD
:10440C003A0D00003E0D0000420D0000460D00006C
:10441C004A0D00004F0D0000530D0000570D000019
:10442C005B0D00005F0D0000630D0000670D0000C8
:10443C006B0D00006F0D0000730D0000770D000078
:10444C007C0D0000800D0000840D0000880D000024
:10445C008C0D0000900D0000940D0000980D0000D4
:10446C009C0D0000A00D0000A50D0000A90D000082
:10447C00AD0D0000B10D0000B50D0000B90D000030
:10448C00BD0D0000C10D0000C50D0000C90D0000E0
:10449C00CD0D0000D20D0000D60D0000DA0D00008D
:1044AC00DE0D0000E20D0000E60D0000EA0D00003C
:1044BC00EE0D0000F20D0000F60D0000FB0D0000EB
:1044CC00FF0D0000030E0000070E00000B0E000095
:1044DC000F0E0000130E0000170E00001B0E000044
:1044EC001F0E0000230E0000280E00002C0E0000F2
:1044FC00300E0000340E0000380E00003C0E0000A0
:10450C00400E0000440E0000480E00004C0E00004F
:10451C00510E0000550E0000590E00005D0E0000FB
:10452C00610E0000650E0000690E00006D0E0000AB
:10453C00710E0000750E0000790E00007E0E00005A
:10454C00820E0000860E00008A0E00008E0E000007
:10455C00920E0000960E00009A0E00009E0E0000B7
:10456C00A20E0000A70E0000AB0E0000AF0E000064
:10457C00B30E0000B70E0000BB0E0000BF0E000013
:10458C00C30E0000C70E0000CB0E0000CF0E0000C3
:10459C00D40E0000D80E0000DC0E0000E00E00006F
:1045AC00E40E0000E80E0000EC0E0000F00E00001F
:1045BC00F40E0000F80E0000FD0E0000010F0000CC
:1045CC00050F0000090F00000D0F0000110F000077
:1045DC00150F0000190F00001D0F0000210F000027
:1045EC00250F00002A0F00002E0F0000320F0000D4
:1045FC00360F00003A0F00003E0F0000420F000083
:10460C00460F00004A0F00004E0F0000530F000031
:10461C00570F00005B0F00005F0F0000630F0000DE
:10462C00670F00006B0F00006F0F0000730F00008E
:10463C00770F00007B0F0000800F0000840F00003C
:10464C00880F00008C0F0000900F0000940F0000EA
:10465C00980F00009C0F0000A00F0000A40F00009A
:10466C00A90F0000AD0F0000B10F0000B50F000046
:10467C00B90F0000BD0F0000C10F0000C50F0000F6
:10468C00C90F0000CD0F0000D10F0000D60F0000A5
:10469C00DA0F0000DE0F0000E20F0000E60F000052
:1046AC00EA0F0000EE0F0000F20F0000F60F000002
:1046BC00FA0F0000FF0700000C08000019080000AA
:1046CC0026080000320800003F0800004C080000DB
:1046DC0059080000660800007308000080080000FC
:1046EC008C08000099080000A6080000B308000020
:1046FC00C0080000CC080000D9080000E608000043
:10470C00F3080000000900000C0900001909000062
:10471C0026090000330900003F0900004C09000085
:10472C005909000065090000720900007F090000AA
:10473C008B09000098090000A5090000B1090000D0
:10474C00BE090000CA090000D7090000E3090000F7
:10475C00F0090000FC090000090A0000150A00001D
:10476C00210A00002E0A00003A0A0000470A000045
:10477C00530A00005F0A00006B0A0000780A000070
:10478C00840A0000900A00009C0A0000A80A00009D
:10479C00B50A0000C10A0000CD0A0000D90A0000C9
:1047AC00E50A0000F10A0000FD0A0000090B0000F8
:1047BC00140B0000200B00002C0B0000380B000029
:1047CC00440B00004F0B00005B0B0000670B00005C
:1047DC00720B00007E0B00008A0B0000950B000092
:1047EC00A10B0000AC0B0000B70B0000C30B0000CA
:1047FC00CE0B0000D90B0000E50B0000F00B000005
:10480C00FB0B0000060C0000110C00001C0C00003F
:10481C00270C0000320C00003D0C0000480C00007E
:10482C00530C00005E0C0000680C0000730C0000C0
:10483C007E0C0000880C0000930C00009E0C000005
:10484C00A80C0000B20C0000BD0C0000C70C00004E
:10485C00D10C0000DC0C0000E60C0000F00C000099
:10486C00FA0C0000040D00000E0D0000180D0000E5
:10487C00220D00002C0D0000360D00003F0D000035
:10488C00490D0000530D00005C0D0000660D00008A
:10489C006F0D0000790D0000820D00008B0D0000E3
:1048AC00940D00009E0D0000A70D0000B00D00003F
:1048BC00B90D0000C20D0000CB0D0000D40D00009E
:1048CC00DC0D0000E50D0000EE0D0000F60D000003
:1048DC00FF0D0000070E0000100E0000180E000067
:1048EC00200E0000290E0000310E0000390E0000D1
:1048FC00410E0000490E0000510E0000590E000040
:10490C00600E0000680E0000700E0000770E0000B4
:10491C007F0E0000860E00008E0E0000950E00002B
:10492C009C0E0000A40E0000AB0E0000B20E0000A6
:10493C00B90E0000C00E0000C70E0000CD0E000026
:10494C00D40E0000DB0E0000E10E0000E80E0000AB
:10495C00EE0E0000F50E0000FB0E0000010F000033
:10496C00070F00000D0F0000140F0000190F0000BE
:10497C001F0F0000250F00002B0F0000310F00004F
:10498C00360F00003C0F0000410F0000460F0000E6
:10499C004C0F0000510F0000560F00005B0F000081
:1049AC00600F0000650F00006A0F00006F0F000021
:1049BC00730F0000780F00007D0F0000810F0000C6
:1049CC00850F00008A0F00008E0F0000920F000070
:1049DC00960F00009A0F00009E0F0000A20F00001F
:1049EC00A60F0000AA0F0000AD0F0000B10F0000D1
:1049FC00B40F0000B80F0000BB0F0000BE0F00008A
:104A0C00C10F0000C40F0000C70F0000CA0F000048
:104A1C00CD0F0000D00F0000D30F0000D50F000009
:104A2C00D80F0000DA0F0000DD0F0000DF0F0000D0
:104A3C00E10F0000E30F0000E50F0000E70F00009E
:104A4C00E90F0000EB0F0000ED0F0000EE0F00006F
:104A5C00F00F0000F10F0000F30F0000F40F000046
:104A6C00F50F0000F70F0000F80F0000F90F000021
:104A7C00FA0F0000FA0F0000FB0F0000FC0F000003
:104A8C00FD0F0000FD0F0000FD0F0000FE0F0000E9
:104A9C00FE0F0000FE0F0000FE0F0000FF0F0000D5
:104AAC00FE0F0000FE0F0000FE0F0000FE0F0000C6
:104ABC00FD0F0000FD0F0000FD0F0000FC0F0000BB
:104ACC00FB0F0000FA0F0000FA0F0000F90F0000B6
:104ADC00F80F0000F70F0000F50F0000F40F0000B6
:104AEC00F30F0000F10F0000F00F0000EE0F0000BC
:104AFC00ED0F0000EB0F0000E90F0000E70F0000C6
:104B0C00E50F0000E30F0000E10F0000DF0F0000D5
:104B1C00DD0F0000DA0F0000D80F0000D50F0000E9
:104B2C00D30F0000D00F0000CD0F0000CA0F000003
:104B3C00C70F0000C40F0000C10F0000BE0F000023
:104B4C00BB0F0000B80F0000B40F0000B10F000045
:104B5C00AD0F0000AA0F0000A60F0000A20F00006E
:104B6C009E0F00009A0F0000960F0000920F00009D
:104B7C008E0F00008A0F0000850F0000810F0000CF
:104B8C007D0F0000780F0000730F00006F0F000006
:104B9C006A0F0000650F0000600F00005B0F000043
:104BAC00560F0000510F00004C0F0000460F000084
:104BBC00410F00003C0F0000360F0000310F0000C9
:104BCC002B0F0000250F00001F0F0000190F000015
:104BDC00140F00000D0F0000070F0000010F000064
:104BEC00FB0E0000F50E0000EE0E0000E80E0000BB
:104BFC00E10E0000DB0E0000D40E0000CD0E000014
:104C0C00C70E0000C00E0000B90E0000B20E00006E
:104C1C00AB0E0000A40E00009C0E0000950E0000D0
:104C2C008E0E0000860E00007F0E0000770E000036
:104C3C00700E0000680E0000600E0000590E00009F
:104C4C00510E0000490E0000410E0000390E00000C
:104C5C00310E0000290E0000200E0000180E00007E
:104C6C00100E0000070E0000FF0D0000F60D0000F6
:104C7C00EE0D0000E50D0000DC0D0000D40D000071
:104C8C00CB0D0000C20D0000B90D0000B00D0000EE
:104C9C00A70D00009E0D0000940D00008B0D000070
:104CAC00820D0000790D00006F0D0000660D0000F4
:104CBC005C0D0000530D0000490D00003F0D00007D
:104CCC00360D00002C0D0000220D0000180D000008
:104CDC000E0D0000040D0000FA0C0000F00C00009A
:104CEC00E60C0000DC0C0000D10C0000C70C00002E
:104CFC00BD0C0000B20C0000A80C00009E0C0000C3
:104D0C00930C0000880C00007E0C0000730C00005B
:104D1C00680C00005E0C0000530C0000480C0000F6
:104D2C003D0C0000320C0000270C00001C0C000095
:104D3C00110C0000060C0000FB0B0000F00B000037
:104D4C00E50B0000D90B0000CE0B0000C30B0000DC
:104D5C00B70B0000AC0B0000A10B0000950B000082
:104D6C008A0B00007E0B0000720B0000670B00002A
:104D7C005B0B00004F0B0000440B0000380B0000D5
:104D8C002C0B0000200B0000140B0000090B000082
:104D9C00FD0A0000F10A0000E50A0000D90A000033
:104DAC00CD0A0000C10A0000B50A0000A80A0000E4
:104DBC009C0A0000900A0000840A0000780A000097
:104DCC006B0A00005F0A0000530A0000470A00004B
:104DDC003A0A00002E0A0000210A0000150A000001
:104DEC00090A0000FC090000F0090000E3090000BA
:104DFC00D7090000CA090000BE090000B109000073
:104E0C00A5090000980900008B0900007F0900002B
:104E1C007209000065090000590900004C090000E6
:104E2C003F090000330900002609000019090000A1
:104E3C000C09000000090000F3080000E60800005F
:104E4C00D9080000CC080000C0080000B30800001E
:104E5C00A6080000990800008C08000080080000DB
:104E6C007308000066080000590800004C08000098
:104E7C003F08000032080000260800001908000056
:104E8C000C080000FF070000F2070000E507000017
:104E9C00D8070000CC070000BF070000B2070000D5
:104EAC00A5070000980700008B0700007E07000094
:104EBC007207000065070000580700004B07000050
:104ECC003E0700003207000025070000180700000D
:104EDC000B070000FE060000F2060000E5060000CD
:104EEC00D8060000CB060000BF060000B20600008A
:104EFC00A5060000990600008C0600007F06000045
:104F0C007306000066060000590600004D060000FE
:104F1C004006000034060000270600001B060000B7
:104F2C000E06000002060000F5050000E905000071
:104F3C00DD050000D0050000C4050000B705000029
:104F4C00AB0500009F0500009305000086050000DE
:104F5C007A0500006E050000620500005605000091
:104F6C00490500003D050000310500002505000045
:104F7C00190500000D05000001050000F5040000F6
:104F8C00EA040000DE040000D2040000C6040000A5
:104F9C00BA040000AF040000A30400009704000052
:104FAC008C040000800400007404000069040000FC
:104FBC005D04000052040000470400003B040000A4
:104FCC003004000025040000190400000E04000049
:104FDC0003040000F8030000ED030000E2030000EE
:104FEC00D7030000CC030000C1030000B60300008F
:104FFC00AB030000A0030000960300008B0300002D
:10500C0080030000760300006B03000060030000C7
:10501C00560300004C03000041030000370300005E
:10502C002D03000022030000180300000E030000F3
:10503C0004030000FA020000F0020000E602000087
:10504C00DC020000D2020000C8020000BF02000017
:10505C00B5020000AB020000A202000098020000A2
:10506C008F020000850200007C0200007302000029
:10507C006A02000060020000570200004E020000AD
:10508C00450200003C020000330200002A0200002E
:10509C0022020000190200001002000008020000A9
:1050AC00FF010000F7010000EE010000E601000026
:1050BC00DE010000D5010000CD010000C50100009B
:1050CC00BD010000B5010000AD010000A50100000C
:1050DC009E010000960100008E0100008701000077
:1050EC007F010000780100007001000069010000E0
:1050FC00620100005A010000530100004C01000045
:10510C00450100003E0100003701000031010000A4
:10511C002A010000230100001D01000016010000FF
:10512C00100100000901000003010000FD00000057
:10513C00F7000000F1000000EA000000E5000000AC
:10514C00DF000000D9000000D3000000CD000000FB
:10515C00C8000000C2000000BD000000B800000044
:10516C00B2000000AD000000A8000000A300000089
:10517C009E00000099000000940000008F000000C9
:10518C008B00000086000000810000007D00000004
:10519C007900000074000000700000006C0000003A
:1051AC006800000064000000600000005C0000006B
:1051BC005800000054000000510000004D00000099
:1051CC004A000000460000004300000040000000C0
:1051DC003D0000003A0000003700000034000000E1
:1051EC00310000002E0000002B0000002900000000
:1051FC002600000024000000210000001F00000019
:10520C001D0000001B00000019000000170000002A
:10521C001500000013000000110000001000000039
:10522C000E0000000D0000000B0000000A00000042
:10523C000900000007000000060000000500000047
:10524C000400000004000000030000000200000045
:10525C00010000000100000001000000000000003F
:10526C000000000000000000000000000000000032
:10527C000000000000000000000000000000000022
:10528C00010000000100000001000000020000000D
:10529C0003000000040000000400000005000000F2
:1052AC000600000007000000090000000A000000D2
:1052BC000B0000000D0000000E00000010000000AC
:1052CC001100000013000000150000001700000082
:1052DC00190000001B0000001D0000001F00000052
:1052EC00210000002400000026000000290000001E
:1052FC002B0000002E0000003100000034000000E4
:10530C00370000003A0000003D00000040000000A3
:10531C0043000000460000004A0000004D00000061
:10532C005100000054000000580000005C00000018
:10533C006000000064000000680000006C000000C9
:10534C007000000074000000790000007D00000077
:10535C0081000000860000008B0000008F00000020
:10536C0094000000990000009E000000A3000000C3
:10537C00A8000000AD000000B2000000B800000062
:10538C00BD000000C2000000C8000000CD000000FD
:10539C00D3000000D9000000DF000000E500000091
:1053AC00EA000000F1000000F7000000FD00000022
:1053BC0003010000090100001001000016010000AB
:1053CC001D010000230100002A0100003101000032
:1053DC00370100003E010000450100004C010000B7
:1053EC00530100005A010000620100006901000035
:1053FC0070010000780100007F01000087010000AF
:10540C008E010000960100009E010000A501000025
:10541C00AD010000B5010000BD010000C501000098
:10542C00CD010000D5010000DE010000E601000006
:10543C00EE010000F7010000FF010000080200006F
:10544C001002000019020000220200002A020000D3
:10545C00330200003C020000450200004E02000036
:10546C0057020000600200006A0200007302000094
:10547C007C020000850200008F02000098020000F0
:10548C00A2020000AB020000B5020000BF02000047
:10549C00C8020000D2020000DC020000E60200009C
:1054AC00F0020000FA020000040300000E030000EA
:1054BC0018030000220300002D0300003703000036
:1054CC00410300004C030000560300006003000081
:1054DC006B03000076030000800300008B030000C8
:1054EC0096030000A0030000AB030000B60300000D
:1054FC00C1030000CC030000D7030000E20300004E
:10550C00ED030000F8030000030400000E0400008B
:10551C001904000025040000300400003B040000C6
:10552C0047040000520400005D0400006904000000
:10553C0074040000800400008C0400009704000038
:10554C00A3040000AF040000BA040000C60400006D
:10555C00D2040000DE040000EA040000F5040000A0
:10556C00010500000D0500001905000025050000CF
:10557C00310500003D0500004905000056050000FE
:10558C00620500006E0500007A050000860500002B
:10559C00930500009F050000AB050000B705000057
:1055AC00C4050000D0050000DD050000E905000081
:1055BC00F5050000020600000E0600001B060000A8
:1055CC002706000034060000400600004D060000CF
:1055DC005906000066060000730600007F060000F6
:1055EC008C06000099060000A5060000B20600001B
:1055FC00BF060000CB060000D8060000E506000040
:10560C00F2060000FE0600000B0700001807000061
:10561C0025070000320700003E0700004B07000082
:10562C005807000065070000720700007E070000A5
:10563C008B07000098070000A5070000B2070000C8
:10564C00BF070000CC070000D8070000E5070000EA
:10565C00F207000001000000100000000024F4001C
:040000050800264188
:00000001FF
